ITP601000000000000000000094355039000256 Endereço: Rua dos Cisnes 25 sala 02 Bairro: Cidade Universitária Pedra Bra CEP: 88137300 Cidade: Palhoça Estado: Santa Catarina Telefone: (48) 33747005 Email: vendassc@qualitatautopecascom0342996800012600000000        EMBV AUTOPECAS E SERVICOS LTDA - EPPHENGST INDUSTRIA DE FILTR         
PP1003406203        27042300          270423                                                                                    
AE394355039000256 Endereço: Rua dos Cisnes 25 sala 02 Bairro: Cidade Universitária Pedra Bra CEP: 88137300 Cidade: Palhoça Estado: Santa Catarina Telefone: (48) 33747005 Email: vendassc@qualitatautopecascom0000000000000000000000000000
TE1COND PAGTO:28/56/84                     00
PP24449130000                    000000010E106H D34 - E106H D34    00000219300000000000000000000000000000000000000000           
PP27384310000                    000000006E1071L - E1071L          00001136400000000000000000000000000000000000000000           
PP22218130000                    000000010E113H D235 - E113H D235  00000826400000000000000000000000000000000000000000           
PP27039310000                    000000006E1144L - E1144L          00000636900000000000000000000000000000000000000000           
PP27203310000                    000000006E1258L - E1258L          00000561700000000000000000000000000000000000000000           
PP27404310000                    000000006E1446L - E1446L          00000516200000000000000000000000000000000000000000           
PP28011310000                    000000006E1543L - E1543L          00000616000000000000000000000000000000000000000000           
PP28340310000                    000000006E1624L - E1624L          00000903800000000000000000000000000000000000000000           
PP28432310000                    000000012E1629L - E1629L          00000414000000000000000000000000000000000000000000           
PP23344130000                    000000010E217H D310 - E217H D310  00000575700000000000000000000000000000000000000000           
PP23175130000                    000000010E237H D331 - E237H D331  00000291100000000000000000000000000000000000000000           
PP26724310000                    000000012E2949LC - E2949LC        00000374400000000000000000000000000000000000000000           
PP26758310000                    000000006E2991LC - E2991LC        00000547200000000000000000000000000000000000000000           
PP26718310000                    000000006E2993LC - E2993LC        00000749300000000000000000000000000000000000000000           
PP26720310000                    000000006E2998LC - E2998LC        00000438000000000000000000000000000000000000000000           
PP24455130000                    000000030E358H D246 - E358H D246  00000257800000000000000000000000000000000000000000           
PP26475310000                    000000012E3950LC-2 - E3950LC-2    00000962700000000000000000000000000000000000000000           
PP29883310000                    000000006E3951LI - E3951LI        00000391800000000000000000000000000000000000000000           
PP26255310000                    000000006E3956LI - E3956LI        00000311300000000000000000000000000000000000000000           
PP27219310000                    000000006E3982LC - E3982LC        00000491000000000000000000000000000000000000000000           
PP23536130000                    000000010E44H D110 - E44H D110    00000229800000000000000000000000000000000000000000           
PP27106310000                    000000006E4936LC - E4936LC        00000720400000000000000000000000000000000000000000           
PP29014310000                    000000006E5967LC - E5967LC        00001033200000000000000000000000000000000000000000           
PP29221310000                    000000006E732L - E732L            00000558700000000000000000000000000000000000000000           
PP24367130000                    000000040E818H D238 - E818H D238  00000515400000000000000000000000000000000000000000           
PP22831130000                    000000010E832H D317 - E832H D317  00000474500000000000000000000000000000000000000000           
PP22863130000                    000000010E833H D321 - E833H D321  00000705300000000000000000000000000000000000000000           
PP23037130000                    000000010E835H D325 - E835H D325  00001243400000000000000000000000000000000000000000           
PP23452130000                    000000010E867H D370 - E867H D370  00000582300000000000000000000000000000000000000000           
PP26797310000                    000000006E998LC - E998LC          00000523200000000000000000000000000000000000000000           
PP21353110000                    000000006EG934H D470 - EG934H D47000002714600000000000000000000000000000000000000000           
PP21406100000                    000000010H14W30 - H14W30          00000547600000000000000000000000000000000000000000           
PP24109100000                    000000010H317W01 - H317W01        00000416200000000000000000000000000000000000000000           
PP22400200000                    000000010H493WK - H493WK          00001370600000000000000000000000000000000000000000           
FTP0000000000000000000000000000000