ITP601000000000000000000013408590000138 Endereço: Rua 94 BR 386 KM 36 999 Bairro: Bela Vista CEP: 98400000 Cidade: Frederico Westphalen Estado: Rio Grande do Sul Telefone: (55) 37441270 Email: compraseixosul@hotmailc0342996800012600000000        EIXO SUL DISTR. DE PECAS HENGST INDUSTRIA DE FILTR         
PP1001906198        27042300          270423                                                                                    
AE313408590000138 Endereço: Rua 94 BR 386 KM 36 999 Bairro: Bela Vista CEP: 98400000 Cidade: Frederico Westphalen Estado: Rio Grande do Sul Telefone: (55) 37441270 Email: compraseixosul@hotmailc0000000000000000000000000000
TE1COND PAGTO:28/42/56                     00
PP27337310000                    000000012E1024L - E1024L          00001793700000000000000000000000000000000000000000           
PP22647130000                    000000010E161H01 D28 - E161H01 D2800000191200000000000000000000000000000000000000000           
PP22697130000                    000000006E175H D129 - E175H D129  00000363900000000000000000000000000000000000000000           
PP21037230000                    000000006E422KP D98 - E422KP D98  00000477100000000000000000000000000000000000000000           
PP24055130000                    000000010E427H D28 - E427H D28    00000441700000000000000000000000000000000000000000           
PP21035230000                    000000012E500KP02 D36 - E500KP02 D00000457200000000000000000000000000000000000000000           
PP21033230000                    000000006E52KP D36 - E52KP D36    00000376500000000000000000000000000000000000000000           
PP21506230000                    000000006E826KP D724-2 - E826KP D700001499000000000000000000000000000000000000000000           
PP24187100000                    000000010H10W02 - H10W02          00000215500000000000000000000000000000000000000000           
PP23835100000                    000000012H200W04 - H200W04        00000527600000000000000000000000000000000000000000           
PP23887100000                    000000024H200WN01 - H200WN01      00000531100000000000000000000000000000000000000000           
PP22296100000                    000000006H300W07 - H300W07        00001370700000000000000000000000000000000000000000           
PP21872200000                    000000020H328WK - H328WK          00000907400000000000000000000000000000000000000000           
PP22462200000                    000000006H501WK - H501WK          00001263000000000000000000000000000000000000000000           
PP22706200000                    000000012H704WK - H704WK          00000673200000000000000000000000000000000000000000           
PP21697200000                    000000006H706WK - H706WK          00000890900000000000000000000000000000000000000000           
PP2519800000                     000000006S20014K/1 - S20014K/1    00000431600000000000000000000000000000000000000000           
PP2518800000                     000000012S27004K/1 - S27004K/1    00000416800000000000000000000000000000000000000000           
PP21111110000                    000000012Z16 D183 - Z16 D183      00001918300000000000000000000000000000000000000000           
FTP0000000000000000000000000000000