ITP601000000000000000000015295953000100 Endereço: Demosthenes Feminella 319 Bairro:  CEP: 88200000 Cidade: Tijucas Estado: Santa Catarina Telefone: (48) 32634768 Email: contato@rimatlacombr Contato: Rosângela (R0342996800012600000000        VIP COMERCIO VAREGISTA DE LUBRIFICANTES LTDAHENGST INDUSTRIA DE FILTR         
PP1001206434        10052300          100523                                                                                    
AE315295953000100 Endereço: Demosthenes Feminella 319 Bairro:  CEP: 88200000 Cidade: Tijucas Estado: Santa Catarina Telefone: (48) 32634768 Email: contato@rimatlacombr Contato: Rosângela (R0000000000000000000000000000
TE1COND PAGTO:28/42/56                     00
PP27337310000                    000000003E1024L - E1024L          00001985000000000000000000000000000000000000000000           
PP27121310000                    000000006E1057L - E1057L          00000983500000000000000000000000000000000000000000           
PP29565310000                    000000006E2070L - E2070L          00001283700000000000000000000000000000000000000000           
PP21033230000                    000000006E52KP D36 - E52KP D36    00000416700000000000000000000000000000000000000000           
PP27375310000                    000000012E603L R - E603L R        00001459100000000000000000000000000000000000000000           
PP25720310000                    000000006E603LS - E603LS          00000980600000000000000000000000000000000000000000           
PP27338310000                    000000006E802L - E802L            00001027500000000000000000000000000000000000000000           
PP22455130000                    000000020E826H D268 - E826H D268  00000503400000000000000000000000000000000000000000           
PP22478130000                    000000010E827H D270 - E827H D270  00000374700000000000000000000000000000000000000000           
PP25851100000                    000000012H24W05 - H24W05          00000588100000000000000000000000000000000000000000           
PP24109100000                    000000020H317W01 - H317W01        00000460600000000000000000000000000000000000000000           
PP21837200000                    000000010H345WK - H345WK          00001462100000000000000000000000000000000000000000           
FTP0000000000000000000000000000000