ITP601000000000000000000008108006000270 Endereço: Av Dos Estados 2405 Bairro: Anchieta CEP: 90200001 Cidade: Porto Alegre Estado: Rio Grande do Sul Telefone: (51) 35352500 Email: douglassanders@savarveiculoscom0342996800012600000000        RAVAS DISTR DE PECAS E RETIFICA LTDAHENGST INDUSTRIA DE FILTR         
PP1004006432        09052300          090523                                                                                    
AE308108006000270 Endereço: Av Dos Estados 2405 Bairro: Anchieta CEP: 90200001 Cidade: Porto Alegre Estado: Rio Grande do Sul Telefone: (51) 35352500 Email: douglassanders@savarveiculoscom0000000000000000000000000000
TE1COND PAGTO:28/42/56                     00
PP211457310000                   000000060E1013L - E1013L          00001620600000000000000000000000000000000000000000           
PP2101530000                     000000030E101U D324 - E101U D324  00000927100000000000000000000000000000000000000000           
PP27337310000                    000000060E1024L - E1024L          00001704000000000000000000000000000000000000000000           
PP27335310000                    000000070E1028L - E1028L          00001151400000000000000000000000000000000000000000           
PP294530000                      000000060E104U D350 - E104U D350  00000577900000000000000000000000000000000000000000           
PP22644130000                    000000080E160H01 D28 - E160H01 D2800000155600000000000000000000000000000000000000000           
PP22649130000                    000000010E161H D28 - E161H D28    00000189100000000000000000000000000000000000000000           
PP22647130000                    000000060E161H01 D28 - E161H01 D2800000191200000000000000000000000000000000000000000           
PP24375130000                    000000010E172H D35 - E172H D35    00000289700000000000000000000000000000000000000000           
PP29565310000                    000000080E2070L - E2070L          00001160000000000000000000000000000000000000000000           
PP21199110000                    000000006E251H D11 - E251H D11    00000508600000000000000000000000000000000000000000           
PP24377130000                    000000050E28H D203 - E28H D203    00000310400000000000000000000000000000000000000000           
PP27159310000                    000000036E2960LI - E2960LI        00000412300000000000000000000000000000000000000000           
PP24365130000                    000000030E311H01 D273 - E311H01 D200001740600000000000000000000000000000000000000000           
PP210343310000                   000000012E3937LI - E3937LI        00000433800000000000000000000000000000000000000000           
PP29207310000                    000000006E3938LI - E3938LI        00000411500000000000000000000000000000000000000000           
PP25721310000                    000000013E420L - E420L            00002467200000000000000000000000000000000000000000           
PP24055130000                    000000040E427H D28 - E427H D28    00000441700000000000000000000000000000000000000000           
PP29379310000                    000000060E4953LI - E4953LI        00000250300000000000000000000000000000000000000000           
PP23538130000                    000000006E500H D129 - E500H D129  00000416600000000000000000000000000000000000000000           
PP21035230000                    000000060E500KP02 D36 - E500KP02 D00000457200000000000000000000000000000000000000000           
PP21033230000                    000000060E52KP D36 - E52KP D36    00000376500000000000000000000000000000000000000000           
PP21067230000                    000000030E57KP D73 - E57KP D73    00000477300000000000000000000000000000000000000000           
PP27375310000                    000000080E603L R - E603L R        00001252500000000000000000000000000000000000000000           
PP26014310000                    000000016E681L - E681L            00001646200000000000000000000000000000000000000000           
PP210678310000                   000000020E6947LI-2 - E6947LI-2    00000288300000000000000000000000000000000000000000           
PP210814310000                   000000030E6952LI - E6952LI        00000283100000000000000000000000000000000000000000           
PP26051310000                    000000030E806L - E806L            00001775400000000000000000000000000000000000000000           
PP21506230000                    000000006E826KP D724-2 - E826KP D700001499000000000000000000000000000000000000000000           
PP21431230000                    000000018E82KP D36 - E82KP D36    00000764100000000000000000000000000000000000000000           
PP27579310000                    000000024E933LI - E933LI          00000494500000000000000000000000000000000000000000           
PP24178130000                    000000042E988H D550 - E988H D550  00000808900000000000000000000000000000000000000000           
PP2136300000                     000000010H100WL - H100WL          00000707300000000000000000000000000000000000000000           
PP23054200000                    000000020H152WK - H152WK          00000594900000000000000000000000000000000000000000           
PP26006100000                    000000036H200W04 - H200W04        00000527600000000000000000000000000000000000000000           
PP26172100000                    000000030H200WN01 - H200WN01      00000531100000000000000000000000000000000000000000           
PP23372200008                    000000010H500K - H500K            00000121400000000000000000000000000000000000000000           
PP22389200000                    000000009H701WK - H701WK          00001010400000000000000000000000000000000000000000           
PP2521200000                     000000050H70WK11 - H70WK11        00000527000000000000000000000000000000000000000000           
PP2518800000                     000000012S27004K/1 - S27004K/1    00000416800000000000000000000000000000000000000000           
FTP0000000000000000000000000000000