ITP601000000000000000000003611080000100 Endereço: Rua Coronel José Martins Cabral 1606 Bairro: Humaitá CEP: 88704360 Cidade: Tubarão Estado: Santa Catarina Telefone: (48) 36281273 Email: felippetessmann@hotmailcom Contato: Felippe Tessma0342996800012600000000        FELIPPE DE SOUZA TESSMANN - EPPHENGST INDUSTRIA DE FILTR         
PP1001206426        08052300          080523                                                                                    
AE303611080000100 Endereço: Rua Coronel José Martins Cabral 1606 Bairro: Humaitá CEP: 88704360 Cidade: Tubarão Estado: Santa Catarina Telefone: (48) 36281273 Email: felippetessmann@hotmailcom Contato: Felippe Tessma0000000000000000000000000000
TE1COND PAGTO:28/42/56                     00
PP26045310000                    000000003E1068L - E1068L          00001262500000000000000000000000000000000000000000           
PP25027310000                    000000002E118L - E118L            00001938200000000000000000000000000000000000000000           
PP24373130000                    000000020E28H D174 - E28H D174    00000536300000000000000000000000000000000000000000           
PP21035230000                    000000024E500KP02 D36 - E500KP02 D00000457200000000000000000000000000000000000000000           
PP21067230000                    000000060E57KP D73 - E57KP D73    00000477300000000000000000000000000000000000000000           
PP26014310000                    000000012E681L - E681L            00001646200000000000000000000000000000000000000000           
PP2136300000                     000000010H100WL - H100WL          00000707300000000000000000000000000000000000000000           
PP2752200000                     000000006H160WK - H160WK          00000650800000000000000000000000000000000000000000           
PP23868100000                    000000012H18W01 - H18W01          00000358900000000000000000000000000000000000000000           
PP22775200000                    000000012H201WDK - H201WDK        00001252800000000000000000000000000000000000000000           
PP22067200000                    000000006H215WK - H215WK          00000705300000000000000000000000000000000000000000           
PP2521200000                     000000010H70WK11 - H70WK11        00000527000000000000000000000000000000000000000000           
FTP0000000000000000000000000000000