ITP601000000000000000000013408590000219 Endereço: Rodovia BR392 PQ Dom Antonio 2420 Bairro: Tomazetti CEP: 97065400 Cidade: Santa Maria Estado: Rio Grande do Sul Telefone: (55) 32121270 Email: compraseixosul@hotmailc0342996800012600000000        EIXO SUL DISTRIBUIDORA DE PECAS LTDA-MEHENGST INDUSTRIA DE FILTR         
PP1001406422        08052300          080523                                                                                    
AE313408590000219 Endereço: Rodovia BR392 PQ Dom Antonio 2420 Bairro: Tomazetti CEP: 97065400 Cidade: Santa Maria Estado: Rio Grande do Sul Telefone: (55) 32121270 Email: compraseixosul@hotmailc0000000000000000000000000000
TE1COND PAGTO:28/42/56                     00
PP27337310000                    000000024E1024L - E1024L          00001704000000000000000000000000000000000000000000           
PP21126110000                    000000010E10H02 - E10H02          00000129700000000000000000000000000000000000000000           
PP25734310000                    000000002E118LS - E118LS          00000838100000000000000000000000000000000000000000           
PP22644130000                    000000010E160H01 D28 - E160H01 D2800000155600000000000000000000000000000000000000000           
PP21037230000                    000000012E422KP D98 - E422KP D98  00000477100000000000000000000000000000000000000000           
PP21033230000                    000000024E52KP D36 - E52KP D36    00000376500000000000000000000000000000000000000000           
PP27375310000                    000000036E603L R - E603L R        00001252500000000000000000000000000000000000000000           
PP27579310000                    000000006E933LI - E933LI          00000494500000000000000000000000000000000000000000           
PP26005100000                    000000012H200W01 - H200W01        00000531100000000000000000000000000000000000000000           
PP26006100000                    000000024H200W04 - H200W04        00000527600000000000000000000000000000000000000000           
PP23344200000                    000000012H200WDK01 - H200WDK01    00000652800000000000000000000000000000000000000000           
PP22707200000                    000000006H702WK - H702WK          00000780300000000000000000000000000000000000000000           
PP21697200000                    000000006H706WK - H706WK          00000890900000000000000000000000000000000000000000           
PP2518800000                     000000012S27004K/1 - S27004K/1    00000416800000000000000000000000000000000000000000           
FTP0000000000000000000000000000000