ITP601000000000000000000003355842000235 Endereço: Rua Amazonas 3385 galpao 1 Bairro: Garcia CEP: 89022003 Cidade: Blumenau Estado: Santa Catarina Telefone: (47) 33361387 Email: compras02@centraldainjecaocom0342996800012600000000        CENTRAL DA INJECAO (FILIAL BLUMENAU)HENGST INDUSTRIA DE FILTR         
PP1001306275        03052300          030523                                                                                    
AE303355842000235 Endereço: Rua Amazonas 3385 galpao 1 Bairro: Garcia CEP: 89022003 Cidade: Blumenau Estado: Santa Catarina Telefone: (47) 33361387 Email: compras02@centraldainjecaocom0000000000000000000000000000
TE1COND PAGTO:28/42/56                     00
PP27142310000                    000000006E1105L - E1105L          00000467900000000000000000000000000000000000000000           
PP27040310000                    000000006E1154L - E1154L          00000902800000000000000000000000000000000000000000           
PP27203310000                    000000006E1258L - E1258L          00000591600000000000000000000000000000000000000000           
PP210216310000                   000000002E1451L - E1451L          00001371000000000000000000000000000000000000000000           
PP28754310000                    000000006E1778L - E1778L          00000656100000000000000000000000000000000000000000           
PP26721310000                    000000006E2948LC - E2948LC        00000639500000000000000000000000000000000000000000           
PP26772310000                    000000006E2949LI - E2949LI        00000363100000000000000000000000000000000000000000           
PP27511310000                    000000006E3900LB - E3900LB        00000514600000000000000000000000000000000000000000           
PP26729310000                    000000006E488L - E488L            00000441800000000000000000000000000000000000000000           
PP210550310000                   000000006E4931LC - E4931LC        00000606700000000000000000000000000000000000000000           
PP24109100000                    000000010H317W01 - H317W01        00000438400000000000000000000000000000000000000000           
PP23532100000                    000000012H319W - H319W            00000342200000000000000000000000000000000000000000           
PP24617100000                    000000010H98W - H98W              00000233900000000000000000000000000000000000000000           
FTP0000000000000000000000000000000