ITP601000000000000000000001234315000166 Endereço: Rua Alemanha 1095 Bairro: Centro CEP: 99700000 Cidade: Erechim Estado: Rio Grande do Sul Telefone: (54) 35226001 Email: jacir@malacarnepecascom0342996800012600000000        MALACARNE                HENGST INDUSTRIA DE FILTR         
PP1001606196        27042300          270423                                                                                    
AE301234315000166 Endereço: Rua Alemanha 1095 Bairro: Centro CEP: 99700000 Cidade: Erechim Estado: Rio Grande do Sul Telefone: (54) 35226001 Email: jacir@malacarnepecascom0000000000000000000000000000
TE1COND PAGTO:28/42/56                     00
PP21440130000                    000000010E11H02 D155 - E11H02 D15500000706000000000000000000000000000000000000000000           
PP23035130000                    000000036E123H01 D194 - E123H01 D100000678800000000000000000000000000000000000000000           
PP21023130000                    000000010E146H D108 - E146H D108  00000192800000000000000000000000000000000000000000           
PP22644130000                    000000010E160H01 D28 - E160H01 D2800000175700000000000000000000000000000000000000000           
PP22649130000                    000000060E161H D28 - E161H D28    00000209300000000000000000000000000000000000000000           
PP22647130000                    000000020E161H01 D28 - E161H01 D2800000211600000000000000000000000000000000000000000           
PP2284130000                     000000010E202H01 D34 - E202H01 D3400000291800000000000000000000000000000000000000000           
PP24373130000                    000000010E28H D174 - E28H D174    00000593500000000000000000000000000000000000000000           
PP21037230000                    000000060E422KP D98 - E422KP D98  00000527900000000000000000000000000000000000000000           
PP24055130000                    000000040E427H D28 - E427H D28    00000488800000000000000000000000000000000000000000           
PP21035230000                    000000012E500KP02 D36 - E500KP02 D00000516300000000000000000000000000000000000000000           
PP21033230000                    000000024E52KP D36 - E52KP D36    00000416700000000000000000000000000000000000000000           
PP21067230000                    000000036E57KP D73 - E57KP D73    00000528200000000000000000000000000000000000000000           
PP2389210000                     000000050E90KP D164 - E90KP D164  00000201500000000000000000000000000000000000000000           
PP2521200000                     000000010H70WK11 - H70WK11        00000583200000000000000000000000000000000000000000           
PP2526600000                     000000012T250W - T250W            00001354000000000000000000000000000000000000000000           
FTP0000000000000000000000000000000