ITP601000000000000000000093527794000127 Endereço: EST RS 122 6670 KM 82 Bairro: SANTO ANTONIO CEP: 95045070 Cidade: CAXIAS DO SUL Estado: Rio Grande do Sul Telefone: (54) 32899500 Email: luizmolardi@bormanacom0342996800012600000000        BORMANA COMERCIO DE AUTOPECAS LTDAHENGST INDUSTRIA DE FILTR         
PP1002306277        04052300          040523                                                                                    
AE393527794000127 Endereço: EST RS 122 6670 KM 82 Bairro: SANTO ANTONIO CEP: 95045070 Cidade: CAXIAS DO SUL Estado: Rio Grande do Sul Telefone: (54) 32899500 Email: luizmolardi@bormanacom0000000000000000000000000000
TE1COND PAGTO:28/42/56                     00
PP211457310000                   000000006E1013L - E1013L          00001720300000000000000000000000000000000000000000           
PP27335310000                    000000006E1028L - E1028L          00001151400000000000000000000000000000000000000000           
PP26272310000                    000000004E1033LS - E1033LS        00001541300000000000000000000000000000000000000000           
PP27386310000                    000000010E1067L - E1067L          00000784900000000000000000000000000000000000000000           
PP26045310000                    000000006E1068L - E1068L          00001262500000000000000000000000000000000000000000           
PP23035130000                    000000012E123H01 D194 - E123H01 D100000613400000000000000000000000000000000000000000           
PP21199110000                    000000006E251H D11 - E251H D11    00000508600000000000000000000000000000000000000000           
PP29446310000                    000000010E272L - E272L            00002710700000000000000000000000000000000000000000           
PP27336310000                    000000002E283L - E283L            00002400500000000000000000000000000000000000000000           
PP23538130000                    000000012E500H D129 - E500H D129  00000416600000000000000000000000000000000000000000           
PP21033230000                    000000012E52KP D36 - E52KP D36    00000376500000000000000000000000000000000000000000           
PP27375310000                    000000036E603L R - E603L R        00001252500000000000000000000000000000000000000000           
PP26014310000                    000000006E681L - E681L            00001646200000000000000000000000000000000000000000           
PP27338310000                    000000010E802L - E802L            00000928400000000000000000000000000000000000000000           
PP2136300000                     000000010H100WL - H100WL          00000707300000000000000000000000000000000000000000           
PP23882100000                    000000010H17W19 - H17W19          00000228700000000000000000000000000000000000000000           
PP23834100000                    000000012H200W02 - H200W02        00000583200000000000000000000000000000000000000000           
PP23860100000                    000000006H220WN - H220WN          00000986600000000000000000000000000000000000000000           
PP21698200000                    000000006H333WK - H333WK          00001130800000000000000000000000000000000000000000           
PP22150200000                    000000024H414WK - H414WK          00000454600000000000000000000000000000000000000000           
PP22083200000                    000000010H60WK01 - H60WK01        00000180400000000000000000000000000000000000000000           
PP22146200000                    000000010H60WK07 - H60WK07        00000161500000000000000000000000000000000000000000           
FTP0000000000000000000000000000000