ITP601000000000000000000003611080000100 Endereço: Rua Coronel José Martins Cabral 1606 Bairro: Humaitá CEP: 88704360 Cidade: Tubarão Estado: Santa Catarina Telefone: (48) 36281273 Email: felippetessmann@hotmailcom Contato: Felippe Tessma0342996800012600000000        FELIPPE DE SOUZA TESSMANN - EPPHENGST INDUSTRIA DE FILTR         
PP1000605793        20042300          200423                                                                                    
AE303611080000100 Endereço: Rua Coronel José Martins Cabral 1606 Bairro: Humaitá CEP: 88704360 Cidade: Tubarão Estado: Santa Catarina Telefone: (48) 36281273 Email: felippetessmann@hotmailcom Contato: Felippe Tessma0000000000000000000000000000
TE1COND PAGTO:28/42/56                     00
PP29446310000                    000000003E272L - E272L            00002978800000000000000000000000000000000000000000           
PP24365130000                    000000006E311H01 D273 - E311H01 D200001912800000000000000000000000000000000000000000           
PP23835100000                    000000240H200W04 - H200W04        00000579800000000000000000000000000000000000000000           
PP22081200000                    000000120H200WDK01 - H200WDK01    00000709600000000000000000000000000000000000000000           
PP25851100000                    000000060H24W05 - H24W05          00000603800000000000000000000000000000000000000000           
PP2857200000                     000000048H710WK - H710WK          00001516500000000000000000000000000000000000000000           
FTP0000000000000000000000000000000