ITP601000000000000000000011726521000570 Endereço: ROD BR 290 SN KM 108 Bairro: PARQUE GUAIBA CEP: 92990000 Cidade: ELDORADO DO SUL Estado: Rio Grande do Sul Telefone: (11) 23777000 Email: 0342996800012600000000        TRANSRIO CAMINHOES, ONIBUS, MAQUINAS EHENGST INDUSTRIA DE FILTR         
PP1002006279        04052300          040523                                                                                    
AE311726521000570 Endereço: ROD BR 290 SN KM 108 Bairro: PARQUE GUAIBA CEP: 92990000 Cidade: ELDORADO DO SUL Estado: Rio Grande do Sul Telefone: (11) 23777000 Email: 0000000000000000000000000000
TE1COND PAGTO:28/42/56                     00
PP2101530000                     000000020E101U D324 - E101U D324  00000927100000000000000000000000000000000000000000           
PP21126110000                    000000040E10H02 - E10H02          00000129700000000000000000000000000000000000000000           
PP22649130000                    000000050E161H D28 - E161H D28    00000189100000000000000000000000000000000000000000           
PP23540130000                    000000036E422H D86 - E422H D86    00000321100000000000000000000000000000000000000000           
PP21003230000                    000000060E422KP04 D322 - E422KP04 00000758300000000000000000000000000000000000000000           
PP24055130000                    000000100E427H D28 - E427H D28    00000441700000000000000000000000000000000000000000           
PP27223310000                    000000036E428L01 - E428L01        00001535600000000000000000000000000000000000000000           
PP26618310000                    000000054E4918LI-2 - E4918LI-2    00000253600000000000000000000000000000000000000000           
PP2663210000                     000000060E820KP D703 - E820KP D70300000749400000000000000000000000000000000000000000           
PP2667210000                     000000060E822KP D705 - E822KP D70500000805800000000000000000000000000000000000000000           
PP2738210000                     000000120E830KP D743 - E830KP D74300001022900000000000000000000000000000000000000000           
PP210345310000                   000000030E954LI01 - E954LI01      00000431400000000000000000000000000000000000000000           
PP23868100000                    000000024H18W01 - H18W01          00000360700000000000000000000000000000000000000000           
PP25381100000                    000000096H19W10 - H19W10          00000530400000000000000000000000000000000000000000           
PP23851100000                    000000036H210W01 - H210W01        00000597900000000000000000000000000000000000000000           
PP23482100000                    000000012H220W - H220W            00000532700000000000000000000000000000000000000000           
PP21676100000                    000000012H300W09 - H300W09        00000742800000000000000000000000000000000000000000           
PP21855200000                    000000024H353WK - H353WK          00000548500000000000000000000000000000000000000000           
PP21877200000                    000000018H357WK - H357WK          00000474700000000000000000000000000000000000000000           
PP2518800000                     000000030S27004K/1 - S27004K/1    00000416800000000000000000000000000000000000000000           
FTP0000000000000000000000000000000