ITP601000000000000000000013408590000219 Endereço: Rodovia BR392 PQ Dom Antonio 2420 Bairro: Tomazetti CEP: 97065400 Cidade: Santa Maria Estado: Rio Grande do Sul Telefone: (55) 32121270 Email: compraseixosul@hotmailc0342996800012600000000        EIXO SUL DISTRIBUIDORA DE PECAS LTDA-MEHENGST INDUSTRIA DE FILTR         
PP1004006197        27042300          270423                                                                                    
AE313408590000219 Endereço: Rodovia BR392 PQ Dom Antonio 2420 Bairro: Tomazetti CEP: 97065400 Cidade: Santa Maria Estado: Rio Grande do Sul Telefone: (55) 32121270 Email: compraseixosul@hotmailc0000000000000000000000000000
TE1COND PAGTO:28/42/56                     00
PP211457310000                   000000006E1013L - E1013L          00001720300000000000000000000000000000000000000000           
PP27337310000                    000000024E1024L - E1024L          00001704000000000000000000000000000000000000000000           
PP27335310000                    000000004E1028L - E1028L          00001151400000000000000000000000000000000000000000           
PP21493230000                    000000006E103KP01 D197-2 - E103KP000001522500000000000000000000000000000000000000000           
PP294530000                      000000010E104U D350 - E104U D350  00000577900000000000000000000000000000000000000000           
PP27386310000                    000000012E1067L - E1067L          00000784900000000000000000000000000000000000000000           
PP21126110000                    000000020E10H02 - E10H02          00000129700000000000000000000000000000000000000000           
PP25724310000                    000000006E115L - E115L            00000704500000000000000000000000000000000000000000           
PP25027310000                    000000006E118L - E118L            00001938200000000000000000000000000000000000000000           
PP22644130000                    000000010E160H01 D28 - E160H01 D2800000158800000000000000000000000000000000000000000           
PP22697130000                    000000006E175H D129 - E175H D129  00000363900000000000000000000000000000000000000000           
PP242130000                      000000010E197H D06 - E197H D06    00000364200000000000000000000000000000000000000000           
PP26052310000                    000000002E281L - E281L            00001092500000000000000000000000000000000000000000           
PP24365130000                    000000006E311H01 D273 - E311H01 D200001740600000000000000000000000000000000000000000           
PP210400310000                   000000002E420LS - E420LS          00004602700000000000000000000000000000000000000000           
PP21037230000                    000000006E422KP D98 - E422KP D98  00000477100000000000000000000000000000000000000000           
PP210493310000                   000000001E428LS - E428LS          00001838700000000000000000000000000000000000000000           
PP21033230000                    000000024E52KP D36 - E52KP D36    00000376500000000000000000000000000000000000000000           
PP25720310000                    000000006E603LS - E603LS          00000886100000000000000000000000000000000000000000           
PP24450310000                    000000002E804L - E804L            00001692400000000000000000000000000000000000000000           
PP26051310000                    000000006E806L - E806L            00001775400000000000000000000000000000000000000000           
PP2136300000                     000000010H100WL - H100WL          00000707300000000000000000000000000000000000000000           
PP23874100000                    000000010H19W08 - H19W08          00000407800000000000000000000000000000000000000000           
PP23835100000                    000000036H200W04 - H200W04        00000527600000000000000000000000000000000000000000           
PP25269100000                    000000006H300W03 - H300W03        00001891500000000000000000000000000000000000000000           
PP21676100000                    000000006H300W09 - H300W09        00000742800000000000000000000000000000000000000000           
PP21698200000                    000000006H333WK - H333WK          00001256400000000000000000000000000000000000000000           
PP21855200000                    000000012H353WK - H353WK          00000548500000000000000000000000000000000000000000           
PP21877200000                    000000006H357WK - H357WK          00000527400000000000000000000000000000000000000000           
PP22607200000                    000000012H415WK - H415WK          00001018000000000000000000000000000000000000000000           
PP22608200000                    000000006H553WK - H553WK          00000663700000000000000000000000000000000000000000           
PP21696200000                    000000006H705WK - H705WK          00000609100000000000000000000000000000000000000000           
PP22277200000                    000000006H709WK - H709WK          00000600700000000000000000000000000000000000000000           
PP23097200000                    000000006H7118WK10 - H7118WK10    00000687900000000000000000000000000000000000000000           
PP23872100000                    000000006H97W - H97W              00000498400000000000000000000000000000000000000000           
PP2519800000                     000000006S20014K/1 - S20014K/1    00000431600000000000000000000000000000000000000000           
PP2518800000                     000000006S27004K/1 - S27004K/1    00000416800000000000000000000000000000000000000000           
PP2526600000                     000000012T250W - T250W            00001223500000000000000000000000000000000000000000           
PP2642600000                     000000006T300W - T300W            00001243700000000000000000000000000000000000000000           
PP21111110000                    000000012Z16 D183 - Z16 D183      00001918300000000000000000000000000000000000000000           
FTP0000000000000000000000000000000