ITP601000000000000000000013408590000480 Endereço: ROD BR386 761 RUA PROJETADA A Bairro: SAO LUIS CEP: 92420040 Cidade: CANOAS Estado: Rio Grande do Sul Telefone: +55 55 97181319 Email: 0342996800012600000000        EIXO SUL DISTRIBUIDORA DE PECAS LTDAHENGST INDUSTRIA DE FILTR         
PP1000806423        08052300          080523                                                                                    
AE313408590000480 Endereço: ROD BR386 761 RUA PROJETADA A Bairro: SAO LUIS CEP: 92420040 Cidade: CANOAS Estado: Rio Grande do Sul Telefone: +55 55 97181319 Email: 0000000000000000000000000000
TE1COND PAGTO:28/42/56                     00
PP27337310000                    000000006E1024L - E1024L          00001793700000000000000000000000000000000000000000           
PP21126110000                    000000010E10H02 - E10H02          00000129700000000000000000000000000000000000000000           
PP22647130000                    000000010E161H01 D28 - E161H01 D2800000191200000000000000000000000000000000000000000           
PP21035230000                    000000012E500KP02 D36 - E500KP02 D00000457200000000000000000000000000000000000000000           
PP27375310000                    000000036E603L R - E603L R        00001252500000000000000000000000000000000000000000           
PP22608200000                    000000006H553WK - H553WK          00000616300000000000000000000000000000000000000000           
PP22389200000                    000000009H701WK - H701WK          00001010400000000000000000000000000000000000000000           
PP22339200000                    000000012H708WK - H708WK          00000702300000000000000000000000000000000000000000           
FTP0000000000000000000000000000000