ITP601000000000000000000085179687000127 Endereço: Rua Judite Melo dos Santos 0 Bairro: Distrito Industrial CEP: 88104765 Cidade: São José Estado: Santa Catarina Telefone: (48) 30348400 Email: maciel@macieldpcom0342996800012600000000        MACIEL DISTRIBUIDORA SJ - MATRIZHENGST INDUSTRIA DE FILTR         
PP1004506238        28042300          280423                                                                                    
AE385179687000127 Endereço: Rua Judite Melo dos Santos 0 Bairro: Distrito Industrial CEP: 88104765 Cidade: São José Estado: Santa Catarina Telefone: (48) 30348400 Email: maciel@macieldpcom0000000000000000000000000000
TE1COND PAGTO:28/42/56                     00
PP2831230000                     000000010E100KP01 D182 - E100KP01 00000787100000000000000000000000000000000000000000           
PP211457310000                   000000006E1013L - E1013L          00001720300000000000000000000000000000000000000000           
PP2101530000                     000000010E101U D324 - E101U D324  00000927100000000000000000000000000000000000000000           
PP27120310000                    000000006E1075L - E1075L          00000447400000000000000000000000000000000000000000           
PP26826310000                    000000012E1079L - E1079L          00000629500000000000000000000000000000000000000000           
PP21126110000                    000000030E10H02 - E10H02          00000129700000000000000000000000000000000000000000           
PP21771110000                    000000020E110H D24 - E110H D24    00000391800000000000000000000000000000000000000000           
PP22330130000                    000000010E115H01 D208 - E115H01 D200000253100000000000000000000000000000000000000000           
PP2220130000                     000000020E11H D57 - E11H D57      00000206200000000000000000000000000000000000000000           
PP21526230000                    000000012E126KP D303 - E126KP D30300002957400000000000000000000000000000000000000000           
PP22106130000                    000000010E155H D122 - E155H D122  00000679400000000000000000000000000000000000000000           
PP22647130000                    000000080E161H01 D28 - E161H01 D2800000191200000000000000000000000000000000000000000           
PP24375130000                    000000010E172H D35 - E172H D35    00000289700000000000000000000000000000000000000000           
PP29565310000                    000000036E2070L - E2070L          00001160000000000000000000000000000000000000000000           
PP22171130000                    000000020E210H D228 - E210H D228  00000150100000000000000000000000000000000000000000           
PP29446310000                    000000004E272L - E272L            00002710700000000000000000000000000000000000000000           
PP2562130000                     000000020E29H D89 - E29H D89      00000329500000000000000000000000000000000000000000           
PP24055130000                    000000040E427H D28 - E427H D28    00000441700000000000000000000000000000000000000000           
PP210518310000                   000000006E472L - E472L            00001083300000000000000000000000000000000000000000           
PP29379310000                    000000006E4953LI - E4953LI        00000276300000000000000000000000000000000000000000           
PP21035230000                    000000024E500KP02 D36 - E500KP02 D00000457200000000000000000000000000000000000000000           
PP21033230000                    000000078E52KP D36 - E52KP D36    00000376500000000000000000000000000000000000000000           
PP24369130000                    000000020E61H D258 - E61H D258    00000372700000000000000000000000000000000000000000           
PP21789110000                    000000020E70H - E70H              00000605200000000000000000000000000000000000000000           
PP21506230000                    000000006E826KP D724-2 - E826KP D700001499000000000000000000000000000000000000000000           
PP22478130000                    000000010E827H D270 - E827H D270  00000338600000000000000000000000000000000000000000           
PP23698130000                    000000012E903H D436 - E903H D436  00001595600000000000000000000000000000000000000000           
PP21317110000                    000000006EG910H D454 - EG910H D45400000638700000000000000000000000000000000000000000           
PP2136300000                     000000020H100WL - H100WL          00000707300000000000000000000000000000000000000000           
PP2556200000                     000000010H113WK - H113WK          00001818000000000000000000000000000000000000000000           
PP2752200000                     000000012H160WK - H160WK          00000650800000000000000000000000000000000000000000           
PP22130200000                    000000010H18WK05 - H18WK05        00000725700000000000000000000000000000000000000000           
PP23842100000                    000000024H200W01 - H200W01        00000531100000000000000000000000000000000000000000           
PP23834100000                    000000012H200W02 - H200W02        00000583200000000000000000000000000000000000000000           
PP23835100000                    000000024H200W04 - H200W04        00000527600000000000000000000000000000000000000000           
PP22082200000                    000000012H200WDK - H200WDK        00000650000000000000000000000000000000000000000000           
PP23887100000                    000000036H200WN01 - H200WN01      00000531100000000000000000000000000000000000000000           
PP23482100000                    000000006H220W - H220W            00000532700000000000000000000000000000000000000000           
PP25851100000                    000000024H24W05 - H24W05          00000531400000000000000000000000000000000000000000           
PP21872200000                    000000010H328WK - H328WK          00000907400000000000000000000000000000000000000000           
PP22150200000                    000000048H414WK - H414WK          00000454600000000000000000000000000000000000000000           
PP22707200000                    000000006H702WK - H702WK          00000780300000000000000000000000000000000000000000           
PP21697200000                    000000006H706WK - H706WK          00000890900000000000000000000000000000000000000000           
PP2521200000                     000000010H70WK11 - H70WK11        00000527000000000000000000000000000000000000000000           
PP2857200000                     000000008H710WK - H710WK          00001364800000000000000000000000000000000000000000           
FTP0000000000000000000000000000000