ITP601000000000000000000003355842000154 Endereço: Rua Fatima 2868 Bairro: Fátima CEP: 89229102 Cidade: Joinville Estado: Santa Catarina Telefone: (47) 34815477 Email: compras02@centraldainjecaocombr Contato: Gabri0342996800012600000000        CENTRAL COM              HENGST INDUSTRIA DE FILTR         
PP1002906284        05052300          050523                                                                                    
AE303355842000154 Endereço: Rua Fatima 2868 Bairro: Fátima CEP: 89229102 Cidade: Joinville Estado: Santa Catarina Telefone: (47) 34815477 Email: compras02@centraldainjecaocombr Contato: Gabri0000000000000000000000000000
TE1COND PAGTO:28/42/56                     00
PP24851310000                    000000006E1001L - E1001L          00000369200000000000000000000000000000000000000000           
PP27102310000                    000000006E1015L - E1015L          00000613300000000000000000000000000000000000000000           
PP26829310000                    000000012E1051L - E1051L          00000483000000000000000000000000000000000000000000           
PP26828310000                    000000006E1058L - E1058L          00000563000000000000000000000000000000000000000000           
PP27384310000                    000000006E1071L - E1071L          00001197000000000000000000000000000000000000000000           
PP27120310000                    000000012E1075L - E1075L          00000461100000000000000000000000000000000000000000           
PP26826310000                    000000018E1079L - E1079L          00000663100000000000000000000000000000000000000000           
PP27141310000                    000000006E1081L - E1081L          00000791700000000000000000000000000000000000000000           
PP25700310000                    000000006E1140L - E1140L          00000901300000000000000000000000000000000000000000           
PP29795310000                    000000006E1143L - E1143L          00001268000000000000000000000000000000000000000000           
PP26222310000                    000000012E1145L - E1145L          00001363800000000000000000000000000000000000000000           
PP26620310000                    000000012E1280L - E1280L          00000546300000000000000000000000000000000000000000           
PP28011310000                    000000006E1543L - E1543L          00000614700000000000000000000000000000000000000000           
PP210202310000                   000000006E1910LC - E1910LC        00000772100000000000000000000000000000000000000000           
PP27605310000                    000000006E2944LC-2 - E2944LC-2    00001128100000000000000000000000000000000000000000           
PP26721310000                    000000012E2948LC - E2948LC        00000639500000000000000000000000000000000000000000           
PP26772310000                    000000006E2949LI - E2949LI        00000363100000000000000000000000000000000000000000           
PP26758310000                    000000012E2991LC - E2991LC        00000576400000000000000000000000000000000000000000           
PP210348310000                   000000006E3934LI-2 - E3934LI-2    00000588700000000000000000000000000000000000000000           
PP26729310000                    000000012E488L - E488L            00000441800000000000000000000000000000000000000000           
PP26185310000                    000000006E531L - E531L            00000470300000000000000000000000000000000000000000           
PP21406100000                    000000030H14W30 - H14W30          00000576800000000000000000000000000000000000000000           
PP21682200000                    000000020H155WK02 - H155WK02      00000967000000000000000000000000000000000000000000           
PP21858200000                    000000010H247WK01 - H247WK01      00001661200000000000000000000000000000000000000000           
PP25143100000                    000000010H310W - H310W            00000181000000000000000000000000000000000000000000           
PP24108100000                    000000010H314W01 - H314W01        00000623500000000000000000000000000000000000000000           
PP24109100000                    000000010H317W01 - H317W01        00000438400000000000000000000000000000000000000000           
PP21653200000                    000000010H331WK - H331WK          00003057400000000000000000000000000000000000000000           
PP24617100000                    000000010H98W - H98W              00000233900000000000000000000000000000000000000000           
FTP0000000000000000000000000000000