ITP601000000000000000000003187199000105 Endereço: R JOAO BELMIRO NUNES 170 Bairro: MATO ALTO CEP: 88904166 Cidade: ARARANGUA Estado: Santa Catarina Telefone: (48) 35247371 Email: soma@somaautopecascom0342996800012600000000        SOMAFORCE DISTRIBUIDORA DE AUTOPECASHENGST INDUSTRIA DE FILTR         
PP1002306282        05052300          050523                                                                                    
AE303187199000105 Endereço: R JOAO BELMIRO NUNES 170 Bairro: MATO ALTO CEP: 88904166 Cidade: ARARANGUA Estado: Santa Catarina Telefone: (48) 35247371 Email: soma@somaautopecascom0000000000000000000000000000
TE1COND PAGTO:28/42/56                     00
PP27337310000                    000000048E1024L - E1024L          00001704000000000000000000000000000000000000000000           
PP27335310000                    000000024E1028L - E1028L          00001151400000000000000000000000000000000000000000           
PP21126110000                    000000048E10H02 - E10H02          00000129700000000000000000000000000000000000000000           
PP25737310000                    000000012E113L - E113L            00000435600000000000000000000000000000000000000000           
PP24447130000                    000000012E11H D204 - E11H D204    00000218500000000000000000000000000000000000000000           
PP22697130000                    000000024E175H D129 - E175H D129  00000363900000000000000000000000000000000000000000           
PP21199110000                    000000024E251H D11 - E251H D11    00000508600000000000000000000000000000000000000000           
PP21037230000                    000000048E422KP D98 - E422KP D98  00000477100000000000000000000000000000000000000000           
PP24055130000                    000000048E427H D28 - E427H D28    00000441700000000000000000000000000000000000000000           
PP210493310000                   000000012E428LS - E428LS          00001838700000000000000000000000000000000000000000           
PP21035230000                    000000048E500KP02 D36 - E500KP02 D00000457200000000000000000000000000000000000000000           
PP21033230000                    000000048E52KP D36 - E52KP D36    00000376500000000000000000000000000000000000000000           
PP21067230000                    000000024E57KP D73 - E57KP D73    00000477300000000000000000000000000000000000000000           
PP27375310000                    000000024E603L R - E603L R        00001318500000000000000000000000000000000000000000           
PP21431230000                    000000048E82KP D36 - E82KP D36    00000764100000000000000000000000000000000000000000           
PP23344200000                    000000048H200WDK01 - H200WDK01    00000652800000000000000000000000000000000000000000           
PP26172100000                    000000024H200WN01 - H200WN01      00000531100000000000000000000000000000000000000000           
PP21855200000                    000000024H353WK - H353WK          00000548500000000000000000000000000000000000000000           
PP22150200000                    000000048H414WK - H414WK          00000454600000000000000000000000000000000000000000           
PP2519800000                     000000012S20014K/1 - S20014K/1    00000431600000000000000000000000000000000000000000           
PP2518800000                     000000012S27004K/1 - S27004K/1    00000416800000000000000000000000000000000000000000           
PP2102974                        000000040V3 13L30K - V3 13L30K    00002565300000000000000000000000000000000000000000           
FTP0000000000000000000000000000000