ITP6010000000000000000000026040470003510342996800012600000000        FORAUTO VEICULOS E PECAS LTDAHENGST INDUSTRIA DE FILTR         
PP1001506190        25042300          250423                                                                                    
AE3026040470003510000000000000000000000000000
TE1COND PAGTO:28/42/56                     00
PP27337310000                    000000020E1024L - E1024L          00001888100000000000000000000000000000000000000000           
PP27335310000                    000000010E1028L - E1028L          00001151400000000000000000000000000000000000000000           
PP22647130000                    000000010E161H01 D28 - E161H01 D2800000191200000000000000000000000000000000000000000           
PP29565310000                    000000002E2070L - E2070L          00001221100000000000000000000000000000000000000000           
PP29446310000                    000000005E272L - E272L            00002978800000000000000000000000000000000000000000           
PP21033230000                    000000018E52KP D36 - E52KP D36    00000376500000000000000000000000000000000000000000           
PP21067230000                    000000018E57KP D73 - E57KP D73    00000477300000000000000000000000000000000000000000           
PP27338310000                    000000002E802L - E802L            00000928400000000000000000000000000000000000000000           
PP22352200000                    000000012H17WK11 - H17WK11        00000616800000000000000000000000000000000000000000           
PP23842100000                    000000006H200W01 - H200W01        00000583600000000000000000000000000000000000000000           
PP23835100000                    000000024H200W04 - H200W04        00000579800000000000000000000000000000000000000000           
PP22081200000                    000000012H200WDK01 - H200WDK01    00000709600000000000000000000000000000000000000000           
PP22706200000                    000000012H704WK - H704WK          00000723900000000000000000000000000000000000000000           
PP21697200000                    000000012H706WK - H706WK          00001113600000000000000000000000000000000000000000           
PP2875600000                     000000006T200W - T200W            00001820600000000000000000000000000000000000000000           
FTP0000000000000000000000000000000