ITP601000000000000000000010762335000109 Endereço: Rodov Br 285, Km 457 0 sla 2 Bairro: Jardim CEP: 98700000 Cidade: Ijuí Estado: Rio Grande do Sul Telefone: (55) 33080233 Email: compras@dalcinlojacom0342996800012600000000        DALCIN (DALBAI)          HENGST INDUSTRIA DE FILTR         
PP1001006200        27042300          270423                                                                                    
AE310762335000109 Endereço: Rodov Br 285, Km 457 0 sla 2 Bairro: Jardim CEP: 98700000 Cidade: Ijuí Estado: Rio Grande do Sul Telefone: (55) 33080233 Email: compras@dalcinlojacom0000000000000000000000000000
TE1COND PAGTO:28/42/56                     00
PP27335310000                    000000004E1028L - E1028L          00001212800000000000000000000000000000000000000000           
PP29207310000                    000000006E3938LI - E3938LI        00000433500000000000000000000000000000000000000000           
PP25721310000                    000000006E420L - E420L            00002598800000000000000000000000000000000000000000           
PP26618310000                    000000006E4918LI-2 - E4918LI-2    00000267200000000000000000000000000000000000000000           
PP21033230000                    000000012E52KP D36 - E52KP D36    00000396600000000000000000000000000000000000000000           
PP21067230000                    000000024E57KP D73 - E57KP D73    00000502700000000000000000000000000000000000000000           
PP26051310000                    000000006E806L - E806L            00001870100000000000000000000000000000000000000000           
PP23842100000                    000000024H200W01 - H200W01        00000559400000000000000000000000000000000000000000           
PP22081200000                    000000012H200WDK01 - H200WDK01    00000687600000000000000000000000000000000000000000           
PP23887100000                    000000012H200WN01 - H200WN01      00000559400000000000000000000000000000000000000000           
FTP0000000000000000000000000000000