ITP601000000000000000000094355039000175 Endereço: Rua Henrique Rech 575 Bairro: Cinquentenario CEP: 95012613 Cidade: Caxias do Sul Estado: Rio Grande do Sul Telefone: (54) 30265000 Email: bvimport@bvimportcom0342996800012600000000        EMBV IMPORT - QUALITAT   HENGST INDUSTRIA DE FILTR         
PP1003306201        27042300          270423                                                                                    
AE394355039000175 Endereço: Rua Henrique Rech 575 Bairro: Cinquentenario CEP: 95012613 Cidade: Caxias do Sul Estado: Rio Grande do Sul Telefone: (54) 30265000 Email: bvimport@bvimportcom0000000000000000000000000000
TE1COND PAGTO:28/42/56                     00
PP26483310000                    000000006E1002L - E1002L          00000341900000000000000000000000000000000000000000           
PP27384310000                    000000006E1071L - E1071L          00001136400000000000000000000000000000000000000000           
PP29795310000                    000000006E1143L - E1143L          00001203800000000000000000000000000000000000000000           
PP27039310000                    000000006E1144L - E1144L          00000636900000000000000000000000000000000000000000           
PP21440130000                    000000010E11H02 D155 - E11H02 D15500000637900000000000000000000000000000000000000000           
PP27404310000                    000000006E1446L - E1446L          00000516200000000000000000000000000000000000000000           
PP28011310000                    000000006E1543L - E1543L          00000616000000000000000000000000000000000000000000           
PP22106130000                    000000010E155H D122 - E155H D122  00000679400000000000000000000000000000000000000000           
PP28340310000                    000000006E1624L - E1624L          00000903800000000000000000000000000000000000000000           
PP28432310000                    000000006E1629L - E1629L          00000414000000000000000000000000000000000000000000           
PP27497310000                    000000006E1944LB-2 - E1944LB-2    00000659500000000000000000000000000000000000000000           
PP210234310000                   000000006E1944LC-2 - E1944LC-2    00001040100000000000000000000000000000000000000000           
PP22104130000                    000000010E204H D218 - E204H D218  00000632600000000000000000000000000000000000000000           
PP26764310000                    000000006E2945LC - E2945LC        00000267200000000000000000000000000000000000000000           
PP26724310000                    000000006E2949LC - E2949LC        00000374400000000000000000000000000000000000000000           
PP26718310000                    000000006E2993LC - E2993LC        00000749300000000000000000000000000000000000000000           
PP26720310000                    000000006E2998LC - E2998LC        00000438000000000000000000000000000000000000000000           
PP26255310000                    000000006E3956LI - E3956LI        00000311300000000000000000000000000000000000000000           
PP23536130000                    000000010E44H D110 - E44H D110    00000229800000000000000000000000000000000000000000           
PP210550310000                   000000006E4931LC - E4931LC        00000576000000000000000000000000000000000000000000           
PP27106310000                    000000006E4936LC - E4936LC        00000720400000000000000000000000000000000000000000           
PP27156310000                    000000006E4938LC-2 - E4938LC-2    00000528500000000000000000000000000000000000000000           
PP24372310000                    000000006E625L - E625L            00000649700000000000000000000000000000000000000000           
PP253330000                      000000006E675L D157 - E675L D157  00000828800000000000000000000000000000000000000000           
PP23239130000                    000000010E71H D141 - E71H D141    00000318700000000000000000000000000000000000000000           
PP29221310000                    000000006E732L - E732L            00000558700000000000000000000000000000000000000000           
PP24367130000                    000000030E818H D238 - E818H D238  00000515400000000000000000000000000000000000000000           
PP22831130000                    000000010E832H D317 - E832H D317  00000474500000000000000000000000000000000000000000           
PP23452130000                    000000010E867H D370 - E867H D370  00000582300000000000000000000000000000000000000000           
PP210200310000                   000000006E951LC - E951LC          00000970500000000000000000000000000000000000000000           
PP23148130000                    000000006EG841H D449 - EG841H D44900000810800000000000000000000000000000000000000000           
PP21317110000                    000000006EG910H D454 - EG910H D45400000638700000000000000000000000000000000000000000           
PP24109100000                    000000010H317W01 - H317W01        00000416200000000000000000000000000000000000000000           
FTP0000000000000000000000000000000