ITP601000000000000000000015401033000110 Endereço: BR386, KM342 2555 Bairro: Olarias CEP: 95910160 Cidade: Lajeado Estado: Rio Grande do Sul Telefone: (51) 37484004 Email: janquiel@ascarinet0342996800012600000000        JJJ COMERCIO DE PECAS LTDAHENGST INDUSTRIA DE FILTR         
PP1002306235        28042300          280423                                                                                    
AE315401033000110 Endereço: BR386, KM342 2555 Bairro: Olarias CEP: 95910160 Cidade: Lajeado Estado: Rio Grande do Sul Telefone: (51) 37484004 Email: janquiel@ascarinet0000000000000000000000000000
TE1COND PAGTO:28/42/56                     00
PP27335310000                    000000002E1028L - E1028L          00001151400000000000000000000000000000000000000000           
PP27386310000                    000000001E1067L - E1067L          00000784900000000000000000000000000000000000000000           
PP23035130000                    000000030E123H01 D194 - E123H01 D100000613400000000000000000000000000000000000000000           
PP22644130000                    000000010E160H01 D28 - E160H01 D2800000158800000000000000000000000000000000000000000           
PP22647130000                    000000020E161H01 D28 - E161H01 D2800000191200000000000000000000000000000000000000000           
PP29446310000                    000000001E272L - E272L            00002710700000000000000000000000000000000000000000           
PP21037230000                    000000024E422KP D98 - E422KP D98  00000477100000000000000000000000000000000000000000           
PP24055130000                    000000010E427H D28 - E427H D28    00000441700000000000000000000000000000000000000000           
PP27223310000                    000000006E428L01 - E428L01        00001616400000000000000000000000000000000000000000           
PP21033230000                    000000012E52KP D36 - E52KP D36    00000376500000000000000000000000000000000000000000           
PP21067230000                    000000036E57KP D73 - E57KP D73    00000477300000000000000000000000000000000000000000           
PP27375310000                    000000036E603L R - E603L R        00001252500000000000000000000000000000000000000000           
PP26014310000                    000000006E681L - E681L            00001646200000000000000000000000000000000000000000           
PP26051310000                    000000006E806L - E806L            00001775400000000000000000000000000000000000000000           
PP210346310000                   000000006E944LI - E944LI          00000322500000000000000000000000000000000000000000           
PP23054200000                    000000020H152WK - H152WK          00000594900000000000000000000000000000000000000000           
PP23842100000                    000000012H200W01 - H200W01        00000531100000000000000000000000000000000000000000           
PP23834100000                    000000060H200W02 - H200W02        00000583200000000000000000000000000000000000000000           
PP22082200000                    000000012H200WDK - H200WDK        00000650000000000000000000000000000000000000000000           
PP25851100000                    000000048H24W05 - H24W05          00000531400000000000000000000000000000000000000000           
PP2526600000                     000000006T250W - T250W            00001223500000000000000000000000000000000000000000           
PP2642600000                     000000003T300W - T300W            00001243700000000000000000000000000000000000000000           
FTP0000000000000000000000000000000