ITP601000000000000000000013616806000150 Endereço: Av Flores Da Cunha 4552 Bairro: Borgueti CEP: 99500000 Cidade: Carazinho Estado: Rio Grande do Sul Telefone: (54) 33292866 Email: rosano@hspartscom0342996800012600000000        HS PARTS                 HENGST INDUSTRIA DE FILTR         
PP1001606280        04052300          040523                                                                                    
AE313616806000150 Endereço: Av Flores Da Cunha 4552 Bairro: Borgueti CEP: 99500000 Cidade: Carazinho Estado: Rio Grande do Sul Telefone: (54) 33292866 Email: rosano@hspartscom0000000000000000000000000000
TE1COND PAGTO:28/42/56                     0OBS:Cliente Reativado - Enviar o cadastro atualizado caso precise
PP27337310000                    000000003E1024L - E1024L          00001889400000000000000000000000000000000000000000           
PP23163130000                    000000010E28H - E28H              00000181200000000000000000000000000000000000000000           
PP24373130000                    000000010E28H D174 - E28H D174    00000564900000000000000000000000000000000000000000           
PP25721310000                    000000006E420L - E420L            00002598800000000000000000000000000000000000000000           
PP21067230000                    000000012E57KP D73 - E57KP D73    00000502700000000000000000000000000000000000000000           
PP26051310000                    000000001E806L - E806L            00001870100000000000000000000000000000000000000000           
PP28021310000                    000000006E947LI - E947LI          00000397800000000000000000000000000000000000000000           
PP22407200000                    000000008H18WK03 - H18WK03        00000790300000000000000000000000000000000000000000           
PP23842100000                    000000024H200W01 - H200W01        00000588500000000000000000000000000000000000000000           
PP23835100000                    000000030H200W04 - H200W04        00000555800000000000000000000000000000000000000000           
PP22082200000                    000000030H200WDK - H200WDK        00000720300000000000000000000000000000000000000000           
PP22081200000                    000000030H200WDK01 - H200WDK01    00000723400000000000000000000000000000000000000000           
PP23887100000                    000000012H200WN01 - H200WN01      00000588500000000000000000000000000000000000000000           
PP256500000                      000000010H28WF - H28WF            00000868800000000000000000000000000000000000000000           
PP21872200000                    000000010H328WK - H328WK          00000955800000000000000000000000000000000000000000           
PP22608200000                    000000012H553WK - H553WK          00000698700000000000000000000000000000000000000000           
FTP0000000000000000000000000000000