ITP6010000000000000000000024896940001060342996800012600000000        BONATTO AUTOPECAS LTDA EPPHENGST INDUSTRIA DE FILTR         
PP1001506262        02052300          020523                                                                                    
AE3024896940001060000000000000000000000000000
TE1COND PAGTO:28/42/56                     00
PP27374310000                    000000006E1009L - E1009L          00001251000000000000000000000000000000000000000000           
PP22647130000                    000000010E161H01 D28 - E161H01 D2800000211600000000000000000000000000000000000000000           
PP22697130000                    000000012E175H D129 - E175H D129  00000402800000000000000000000000000000000000000000           
PP28640310000                    000000006E1908LI - E1908LI        00000338900000000000000000000000000000000000000000           
PP21199110000                    000000006E251H D11 - E251H D11    00000562900000000000000000000000000000000000000000           
PP29446310000                    000000002E272L - E272L            00002999800000000000000000000000000000000000000000           
PP27159310000                    000000006E2960LI - E2960LI        00000461300000000000000000000000000000000000000000           
PP21035230000                    000000006E500KP02 D36 - E500KP02 D00000505900000000000000000000000000000000000000000           
PP27375310000                    000000036E603L R - E603L R        00001386200000000000000000000000000000000000000000           
PP26014310000                    000000006E681L - E681L            00001821800000000000000000000000000000000000000000           
PP29205310000                    000000012E980LI - E980LI          00000439800000000000000000000000000000000000000000           
PP22707200000                    000000006H702WK - H702WK          00000863600000000000000000000000000000000000000000           
PP22706200000                    000000006H704WK - H704WK          00000745000000000000000000000000000000000000000000           
PP21697200000                    000000012H706WK - H706WK          00000985900000000000000000000000000000000000000000           
PP23097200000                    000000006H7118WK10 - H7118WK10    00000761300000000000000000000000000000000000000000           
FTP0000000000000000000000000000000