ITP601000000000000000000003195677000110 Endereço: Av José Manoel Reis 151 Bairro:  CEP: 88200000 Cidade: Tijucas Estado: Santa Catarina Telefone: (48) 32630848 Email: compras@compartsdieselcombr Contato: Adriana Candi0342996800012600000000        COMPARTS                 HENGST INDUSTRIA DE FILTR         
PP1000805723        19042300          190423                                                                                    
AE303195677000110 Endereço: Av José Manoel Reis 151 Bairro:  CEP: 88200000 Cidade: Tijucas Estado: Santa Catarina Telefone: (48) 32630848 Email: compras@compartsdieselcombr Contato: Adriana Candi0000000000000000000000000000
TE1COND PAGTO:28/42/56                     0OBS:OC 471                              
PP27335310000                    000000006E1028L - E1028L          00001212800000000000000000000000000000000000000000           
PP25778310000                    000000003E361L - E361L            00002656300000000000000000000000000000000000000000           
PP23880100000                    000000012H17W06 - H17W06          00000236800000000000000000000000000000000000000000           
PP22150200000                    000000012H414WK - H414WK          00000621800000000000000000000000000000000000000000           
PP22462200000                    000000012H501WK - H501WK          00001662900000000000000000000000000000000000000000           
PP22146200000                    000000010H60WK07 - H60WK07        00000243000000000000000000000000000000000000000000           
PP22707200000                    000000006H702WK - H702WK          00000903300000000000000000000000000000000000000000           
PP21413200000                    000000006H7090WK30 - H7090WK30    00000780400000000000000000000000000000000000000000           
FTP0000000000000000000000000000000