ITP601000000000000000000013408590000308 Endereço: R PADRE AURELIO CANZI 3760 Bairro: SAO SEBASTIAO CEP: 89900000 Cidade: SAO MIGUEL DO OESTE Estado: Santa Catarina Telefone: 49 30900800 Email: compraseixosul@hotmailc0342996800012600000000        EIXO SUL DISTRIBUIDORA DE PECAS LTDAHENGST INDUSTRIA DE FILTR         
PP1004006425        08052300          080523                                                                                    
AE313408590000308 Endereço: R PADRE AURELIO CANZI 3760 Bairro: SAO SEBASTIAO CEP: 89900000 Cidade: SAO MIGUEL DO OESTE Estado: Santa Catarina Telefone: 49 30900800 Email: compraseixosul@hotmailc0000000000000000000000000000
TE1COND PAGTO:14/28/42/56                  00
PP211457310000                   000000036E1013L - E1013L          00001620600000000000000000000000000000000000000000           
PP27337310000                    000000056E1024L - E1024L          00001704000000000000000000000000000000000000000000           
PP27335310000                    000000012E1028L - E1028L          00001151400000000000000000000000000000000000000000           
PP26045310000                    000000012E1068L - E1068L          00001262500000000000000000000000000000000000000000           
PP21126110000                    000000010E10H02 - E10H02          00000129700000000000000000000000000000000000000000           
PP22644130000                    000000020E160H01 D28 - E160H01 D2800000155600000000000000000000000000000000000000000           
PP22649130000                    000000010E161H D28 - E161H D28    00000189100000000000000000000000000000000000000000           
PP22647130000                    000000010E161H01 D28 - E161H01 D2800000191200000000000000000000000000000000000000000           
PP22697130000                    000000012E175H D129 - E175H D129  00000363900000000000000000000000000000000000000000           
PP29446310000                    000000012E272L - E272L            00002710700000000000000000000000000000000000000000           
PP24377130000                    000000010E28H D203 - E28H D203    00000310400000000000000000000000000000000000000000           
PP27159310000                    000000012E2960LI - E2960LI        00000412300000000000000000000000000000000000000000           
PP210343310000                   000000006E3937LI - E3937LI        00000433800000000000000000000000000000000000000000           
PP21037230000                    000000012E422KP D98 - E422KP D98  00000477100000000000000000000000000000000000000000           
PP23538130000                    000000006E500H D129 - E500H D129  00000416600000000000000000000000000000000000000000           
PP21035230000                    000000048E500KP02 D36 - E500KP02 D00000457200000000000000000000000000000000000000000           
PP21033230000                    000000012E52KP D36 - E52KP D36    00000376500000000000000000000000000000000000000000           
PP27375310000                    000000072E603L R - E603L R        00001252500000000000000000000000000000000000000000           
PP25720310000                    000000006E603LS - E603LS          00000886100000000000000000000000000000000000000000           
PP26014310000                    000000006E681L - E681L            00001646200000000000000000000000000000000000000000           
PP26051310000                    000000006E806L - E806L            00001775400000000000000000000000000000000000000000           
PP28829310000                    000000006E931LI - E931LI          00000299600000000000000000000000000000000000000000           
PP25666100000                    000000024H200W02 - H200W02        00000583200000000000000000000000000000000000000000           
PP26006100000                    000000056H200W04 - H200W04        00000527600000000000000000000000000000000000000000           
PP23343200000                    000000006H200WDK - H200WDK        00000650000000000000000000000000000000000000000000           
PP23344200000                    000000012H200WDK01 - H200WDK01    00000652800000000000000000000000000000000000000000           
PP26172100000                    000000024H200WN01 - H200WN01      00000531100000000000000000000000000000000000000000           
PP23843100000                    000000006H230W - H230W            00000818700000000000000000000000000000000000000000           
PP25851100000                    000000012H24W05 - H24W05          00000531400000000000000000000000000000000000000000           
PP21872200000                    000000010H328WK - H328WK          00000907400000000000000000000000000000000000000000           
PP22409200000                    000000012H392WK - H392WK          00000774000000000000000000000000000000000000000000           
PP22462200000                    000000006H501WK - H501WK          00001263000000000000000000000000000000000000000000           
PP22083200000                    000000020H60WK01 - H60WK01        00000180400000000000000000000000000000000000000000           
PP22707200000                    000000012H702WK - H702WK          00000780300000000000000000000000000000000000000000           
PP22706200000                    000000048H704WK - H704WK          00000673200000000000000000000000000000000000000000           
PP21697200000                    000000012H706WK - H706WK          00000890900000000000000000000000000000000000000000           
PP2518800000                     000000006S27004K/1 - S27004K/1    00000416800000000000000000000000000000000000000000           
PP2526600000                     000000024T250W - T250W            00001223500000000000000000000000000000000000000000           
PP2296600000                     000000006T280W - T280W            00002034600000000000000000000000000000000000000000           
PP2642600000                     000000006T300W - T300W            00001243700000000000000000000000000000000000000000           
FTP0000000000000000000000000000000