ITP6010000000000000000000851796870003990342996800012600000000        MACIEL DISTRIBUIDORA CHAPHENGST INDUSTRIA DE FILTR         
PP1003606239        28042300          280423                                                                                    
AE3851796870003990000000000000000000000000000
TE1COND PAGTO:28/42/56                     00
PP211457310000                   000000006E1013L - E1013L          00001720300000000000000000000000000000000000000000           
PP27337310000                    000000015E1024L - E1024L          00001793700000000000000000000000000000000000000000           
PP21126110000                    000000040E10H02 - E10H02          00000129700000000000000000000000000000000000000000           
PP23035130000                    000000018E123H01 D194 - E123H01 D100000613400000000000000000000000000000000000000000           
PP22649130000                    000000010E161H D28 - E161H D28    00000189100000000000000000000000000000000000000000           
PP22647130000                    000000060E161H01 D28 - E161H01 D2800000191200000000000000000000000000000000000000000           
PP22697130000                    000000012E175H D129 - E175H D129  00000363900000000000000000000000000000000000000000           
PP24377130000                    000000010E28H D203 - E28H D203    00000310400000000000000000000000000000000000000000           
PP24365130000                    000000006E311H01 D273 - E311H01 D200001740600000000000000000000000000000000000000000           
PP25721310000                    000000003E420L - E420L            00002467200000000000000000000000000000000000000000           
PP21037230000                    000000042E422KP D98 - E422KP D98  00000477100000000000000000000000000000000000000000           
PP24055130000                    000000050E427H D28 - E427H D28    00000441700000000000000000000000000000000000000000           
PP23538130000                    000000006E500H D129 - E500H D129  00000416600000000000000000000000000000000000000000           
PP21035230000                    000000036E500KP02 D36 - E500KP02 D00000457200000000000000000000000000000000000000000           
PP21033230000                    000000060E52KP D36 - E52KP D36    00000376500000000000000000000000000000000000000000           
PP21067230000                    000000060E57KP D73 - E57KP D73    00000477300000000000000000000000000000000000000000           
PP26014310000                    000000006E681L - E681L            00001646200000000000000000000000000000000000000000           
PP21789110000                    000000010E70H - E70H              00000605200000000000000000000000000000000000000000           
PP26051310000                    000000002E806L - E806L            00001775400000000000000000000000000000000000000000           
PP2389210000                     000000010E90KP D164 - E90KP D164  00000182100000000000000000000000000000000000000000           
PP23054200000                    000000030H152WK - H152WK          00000594900000000000000000000000000000000000000000           
PP22407200000                    000000008H18WK03 - H18WK03        00000750300000000000000000000000000000000000000000           
PP22130200000                    000000010H18WK05 - H18WK05        00000725700000000000000000000000000000000000000000           
PP21431100000                    000000020H19W09 - H19W09          00000502600000000000000000000000000000000000000000           
PP25381100000                    000000024H19W10 - H19W10          00000530400000000000000000000000000000000000000000           
PP23842100000                    000000054H200W01 - H200W01        00000531100000000000000000000000000000000000000000           
PP23835100000                    000000060H200W04 - H200W04        00000527600000000000000000000000000000000000000000           
PP22081200000                    000000042H200WDK01 - H200WDK01    00000652800000000000000000000000000000000000000000           
PP23887100000                    000000036H200WN01 - H200WN01      00000531100000000000000000000000000000000000000000           
PP23482100000                    000000018H220W - H220W            00000532700000000000000000000000000000000000000000           
PP23843100000                    000000012H230W - H230W            00000818700000000000000000000000000000000000000000           
PP25851100000                    000000012H24W05 - H24W05          00000531400000000000000000000000000000000000000000           
PP22632100000                    000000006H311W - H311W            00004014000000000000000000000000000000000000000000           
PP21872200000                    000000020H328WK - H328WK          00000907400000000000000000000000000000000000000000           
PP21698200000                    000000006H333WK - H333WK          00001130800000000000000000000000000000000000000000           
PP22150200000                    000000036H414WK - H414WK          00000454600000000000000000000000000000000000000000           
FTP0000000000000000000000000000000