ITP601000000000000000000015295953000100 Endereço: Demosthenes Feminella 319 Bairro:  CEP: 88200000 Cidade: Tijucas Estado: Santa Catarina Telefone: (48) 32634768 Email: contato@rimatlacombr Contato: Rosângela (R0342996800012600000000        VIP COMERCIO VAREGISTA DE LUBRIFICANTES LTDAHENGST INDUSTRIA DE FILTR         
PP1002606191        25042300          250423                                                                                    
AE315295953000100 Endereço: Demosthenes Feminella 319 Bairro:  CEP: 88200000 Cidade: Tijucas Estado: Santa Catarina Telefone: (48) 32634768 Email: contato@rimatlacombr Contato: Rosângela (R0000000000000000000000000000
TE1COND PAGTO:28/42/56                     00
PP211457310000                   000000004E1013L - E1013L          00002274600000000000000000000000000000000000000000           
PP27337310000                    000000004E1024L - E1024L          00002089500000000000000000000000000000000000000000           
PP27335310000                    000000010E1028L - E1028L          00001274200000000000000000000000000000000000000000           
PP26045310000                    000000030E1068L - E1068L          00001397200000000000000000000000000000000000000000           
PP22330130000                    000000010E115H01 D208 - E115H01 D200000331300000000000000000000000000000000000000000           
PP22697130000                    000000012E175H D129 - E175H D129  00000419500000000000000000000000000000000000000000           
PP22171130000                    000000010E210H D228 - E210H D228  00000178700000000000000000000000000000000000000000           
PP23172130000                    000000010E219H D330 - E219H D330  00000301400000000000000000000000000000000000000000           
PP26838310000                    000000012E2945LI - E2945LI        00000177500000000000000000000000000000000000000000           
PP27500310000                    000000006E2991LB - E2991LB        00000864000000000000000000000000000000000000000000           
PP2554130000                     000000020E31H D93 - E31H D93      00000329700000000000000000000000000000000000000000           
PP24455130000                    000000010E358H D246 - E358H D246  00000335700000000000000000000000000000000000000000           
PP24055130000                    000000010E427H D28 - E427H D28    00000575100000000000000000000000000000000000000000           
PP26014310000                    000000003E681L - E681L            00001821800000000000000000000000000000000000000000           
PP27338310000                    000000006E802L - E802L            00001027500000000000000000000000000000000000000000           
PP21069230000                    000000010E83KP02 D140 - E83KP02 D100000791700000000000000000000000000000000000000000           
PP28829310000                    000000006E931LI - E931LI          00000390000000000000000000000000000000000000000000           
PP21709100000                    000000010H10W17 - H10W17          00000308100000000000000000000000000000000000000000           
PP23833100000                    000000012H12W08 - H12W08          00000444000000000000000000000000000000000000000000           
PP25172100000                    000000010H13W01 - H13W01          00000260500000000000000000000000000000000000000000           
PP25851100000                    000000012H24W05 - H24W05          00000668300000000000000000000000000000000000000000           
PP22296100000                    000000012H300W07 - H300W07        00001596800000000000000000000000000000000000000000           
PP24276100000                    000000024H97W05 - H97W05          00000211100000000000000000000000000000000000000000           
PP24275100000                    000000012H97W07 - H97W07          00000210400000000000000000000000000000000000000000           
PP2526600000                     000000012T250W - T250W            00001354000000000000000000000000000000000000000000           
PP2296600000                     000000006T280W - T280W            00002251600000000000000000000000000000000000000000           
FTP0000000000000000000000000000000