ITP6010000000000000000000074266840001370342996800012600000000        MOTORTECH                HENGST INDUSTRIA DE FILTR         
PP1002806233        28042300          280423                                                                                    
AE3074266840001370000000000000000000000000000
TE1COND PAGTO:28/42/56                     0OBS:O.C 669                             
PP27374310000                    000000006E1009L - E1009L          00001130400000000000000000000000000000000000000000           
PP27335310000                    000000024E1028L - E1028L          00001151400000000000000000000000000000000000000000           
PP27384310000                    000000006E1071L - E1071L          00001136400000000000000000000000000000000000000000           
PP25513310000                    000000006E1086L - E1086L          00000561100000000000000000000000000000000000000000           
PP21126110000                    000000020E10H02 - E10H02          00000129700000000000000000000000000000000000000000           
PP24447130000                    000000010E11H D204 - E11H D204    00000218500000000000000000000000000000000000000000           
PP23035130000                    000000060E123H01 D194 - E123H01 D100000601100000000000000000000000000000000000000000           
PP22647130000                    000000040E161H01 D28 - E161H01 D2800000191200000000000000000000000000000000000000000           
PP27336310000                    000000002E283L - E283L            00002400500000000000000000000000000000000000000000           
PP27159310000                    000000006E2960LI - E2960LI        00000463200000000000000000000000000000000000000000           
PP25721310000                    000000002E420L - E420L            00002467200000000000000000000000000000000000000000           
PP21037230000                    000000024E422KP D98 - E422KP D98  00000477100000000000000000000000000000000000000000           
PP24055130000                    000000080E427H D28 - E427H D28    00000441700000000000000000000000000000000000000000           
PP21035230000                    000000060E500KP02 D36 - E500KP02 D00000457200000000000000000000000000000000000000000           
PP27375310000                    000000036E603L R - E603L R        00001250500000000000000000000000000000000000000000           
PP26735310000                    000000006E821L - E821L            00000663800000000000000000000000000000000000000000           
PP21363110000                    000000006EG939H D475 - EG939H D47500000875800000000000000000000000000000000000000000           
PP23868100000                    000000012H18W01 - H18W01          00000368100000000000000000000000000000000000000000           
PP25381100000                    000000060H19W10 - H19W10          00000530400000000000000000000000000000000000000000           
PP23834100000                    000000024H200W02 - H200W02        00000583200000000000000000000000000000000000000000           
PP23835100000                    000000096H200W04 - H200W04        00000527600000000000000000000000000000000000000000           
PP25269100000                    000000006H300W03 - H300W03        00001891500000000000000000000000000000000000000000           
PP22296100000                    000000006H300W07 - H300W07        00001370700000000000000000000000000000000000000000           
PP22146200000                    000000020H60WK07 - H60WK07        00000161500000000000000000000000000000000000000000           
PP22706200000                    000000006H704WK - H704WK          00000673200000000000000000000000000000000000000000           
PP23872100000                    000000012H97W - H97W              00000498400000000000000000000000000000000000000000           
PP24276100000                    000000012H97W05 - H97W05          00000190700000000000000000000000000000000000000000           
PP2642600000                     000000006T300W - T300W            00001243700000000000000000000000000000000000000000           
FTP0000000000000000000000000000000