ITP6010000000000000000000026040470003510342996800012600000000        FORAUTO VEICULOS E PECAS LTDAHENGST INDUSTRIA DE FILTR         
PP1001306439        10052300          100523                                                                                    
AE3026040470003510000000000000000000000000000
TE1COND PAGTO:28/42/56                     00
PP27337310000                    000000024E1024L - E1024L          00001793700000000000000000000000000000000000000000           
PP27335310000                    000000005E1028L - E1028L          00001151400000000000000000000000000000000000000000           
PP21126110000                    000000010E10H02 - E10H02          00000129700000000000000000000000000000000000000000           
PP22647130000                    000000020E161H01 D28 - E161H01 D2800000191200000000000000000000000000000000000000000           
PP24055130000                    000000010E427H D28 - E427H D28    00000441700000000000000000000000000000000000000000           
PP21033230000                    000000012E52KP D36 - E52KP D36    00000376500000000000000000000000000000000000000000           
PP21067230000                    000000030E57KP D73 - E57KP D73    00000477300000000000000000000000000000000000000000           
PP21431230000                    000000024E82KP D36 - E82KP D36    00000764100000000000000000000000000000000000000000           
PP23054200000                    000000010H152WK - H152WK          00000594900000000000000000000000000000000000000000           
PP26006100000                    000000012H200W04 - H200W04        00000527600000000000000000000000000000000000000000           
PP23344200000                    000000012H200WDK01 - H200WDK01    00000652800000000000000000000000000000000000000000           
PP25851100000                    000000012H24W05 - H24W05          00000531400000000000000000000000000000000000000000           
PP21697200000                    000000006H706WK - H706WK          00000890900000000000000000000000000000000000000000           
FTP0000000000000000000000000000000