ITP601000000000000000000013408590000138 Endereço: Rua 94 BR 386 KM 36 999 Bairro: Bela Vista CEP: 98400000 Cidade: Frederico Westphalen Estado: Rio Grande do Sul Telefone: (55) 37441270 Email: compraseixosul@hotmailc0342996800012600000000        EIXO SUL DISTR. DE PECAS HENGST INDUSTRIA DE FILTR         
PP1002906424        08052300          080523                                                                                    
AE313408590000138 Endereço: Rua 94 BR 386 KM 36 999 Bairro: Bela Vista CEP: 98400000 Cidade: Frederico Westphalen Estado: Rio Grande do Sul Telefone: (55) 37441270 Email: compraseixosul@hotmailc0000000000000000000000000000
TE1COND PAGTO:14/28/42/56                  00
PP27337310000                    000000036E1024L - E1024L          00001704000000000000000000000000000000000000000000           
PP21493230000                    000000012E103KP01 D197-2 - E103KP000001539400000000000000000000000000000000000000000           
PP21126110000                    000000010E10H02 - E10H02          00000129700000000000000000000000000000000000000000           
PP23035130000                    000000018E123H01 D194 - E123H01 D100000613400000000000000000000000000000000000000000           
PP22697130000                    000000056E175H D129 - E175H D129  00000363900000000000000000000000000000000000000000           
PP27159310000                    000000006E2960LI - E2960LI        00000412300000000000000000000000000000000000000000           
PP21037230000                    000000012E422KP D98 - E422KP D98  00000477100000000000000000000000000000000000000000           
PP24055130000                    000000006E427H D28 - E427H D28    00000441700000000000000000000000000000000000000000           
PP21288230000                    000000012E438KP01 D267 - E438KP01 00000841100000000000000000000000000000000000000000           
PP21035230000                    000000024E500KP02 D36 - E500KP02 D00000457200000000000000000000000000000000000000000           
PP21033230000                    000000012E52KP D36 - E52KP D36    00000376500000000000000000000000000000000000000000           
PP27375310000                    000000036E603L R - E603L R        00001252500000000000000000000000000000000000000000           
PP21506230000                    000000006E826KP D724-2 - E826KP D700001499000000000000000000000000000000000000000000           
PP21431230000                    000000012E82KP D36 - E82KP D36    00000764100000000000000000000000000000000000000000           
PP24187100000                    000000010H10W02 - H10W02          00000215500000000000000000000000000000000000000000           
PP2790200000                     000000010H179WK - H179WK          00000785100000000000000000000000000000000000000000           
PP22352200000                    000000012H17WK11 - H17WK11        00000524300000000000000000000000000000000000000000           
PP26006100000                    000000060H200W04 - H200W04        00000527600000000000000000000000000000000000000000           
PP23343200000                    000000012H200WDK - H200WDK        00000650000000000000000000000000000000000000000000           
PP21060200000                    000000012H233WK - H233WK          00000964500000000000000000000000000000000000000000           
PP22296100000                    000000012H300W07 - H300W07        00001370700000000000000000000000000000000000000000           
PP21676100000                    000000006H300W09 - H300W09        00000742800000000000000000000000000000000000000000           
PP21872200000                    000000012H328WK - H328WK          00000907400000000000000000000000000000000000000000           
PP22462200000                    000000012H501WK - H501WK          00001263000000000000000000000000000000000000000000           
PP22608200000                    000000036H553WK - H553WK          00000616300000000000000000000000000000000000000000           
PP23311200000                    000000012H700WK - H700WK          00000753700000000000000000000000000000000000000000           
PP21697200000                    000000012H706WK - H706WK          00000890900000000000000000000000000000000000000000           
PP2518800000                     000000012S27004K/1 - S27004K/1    00000416800000000000000000000000000000000000000000           
PP2642600000                     000000012T300W - T300W            00001243700000000000000000000000000000000000000000           
FTP0000000000000000000000000000000