ITP6010000000000000000000301579950001600342996800012600000000        MTD COMERCIO DE AUTO PECAS LTDAHENGST INDUSTRIA DE FILTR         
PP1001206273        03052300          030523                                                                                    
AE3301579950001600000000000000000000000000000
TE1COND PAGTO:28/42/56                     00
PP21457110000                    000000012E103H D159 - E103H D159  00000370100000000000000000000000000000000000000000           
PP21126110000                    000000010E10H02 - E10H02          00000133200000000000000000000000000000000000000000           
PP22647130000                    000000020E161H01 D28 - E161H01 D2800000196300000000000000000000000000000000000000000           
PP22697130000                    000000012E175H D129 - E175H D129  00000373600000000000000000000000000000000000000000           
PP29446310000                    000000010E272L - E272L            00002783000000000000000000000000000000000000000000           
PP21035230000                    000000018E500KP02 D36 - E500KP02 D00000469400000000000000000000000000000000000000000           
PP21033230000                    000000024E52KP D36 - E52KP D36    00000386600000000000000000000000000000000000000000           
PP25720310000                    000000015E603LS - E603LS          00000909700000000000000000000000000000000000000000           
PP29454310000                    000000006E805L - E805L            00001370600000000000000000000000000000000000000000           
PP28829310000                    000000006E931LI - E931LI          00000309400000000000000000000000000000000000000000           
PP29205310000                    000000012E980LI - E980LI          00000408000000000000000000000000000000000000000000           
PP22279200000                    000000006H467WK - H467WK          00001180700000000000000000000000000000000000000000           
FTP0000000000000000000000000000000