ITP6010000000000000000000220659150001180342996800012600000000        RODODIS COMERCIO ATACADISTA DE PECAS LTDA - MEHENGST INDUSTRIA DE FILTR         
PP1003206210        27042300          270423                                                                                    
AE3220659150001180000000000000000000000000000
TE1COND PAGTO:28/42/56                     00
PP211457310000                   000000036E1013L - E1013L          00001634300000000000000000000000000000000000000000           
PP27337310000                    000000042E1024L - E1024L          00001793700000000000000000000000000000000000000000           
PP298530000                      000000012E103U D295 - E103U D295  00000670900000000000000000000000000000000000000000           
PP26045310000                    000000004E1068L - E1068L          00001148900000000000000000000000000000000000000000           
PP21126110000                    000000010E10H02 - E10H02          00000129700000000000000000000000000000000000000000           
PP23035130000                    000000102E123H01 D194 - E123H01 D100000613400000000000000000000000000000000000000000           
PP22647130000                    000000010E161H01 D28 - E161H01 D2800000191200000000000000000000000000000000000000000           
PP29446310000                    000000006E272L - E272L            00002710700000000000000000000000000000000000000000           
PP27159310000                    000000006E2960LI - E2960LI        00000416900000000000000000000000000000000000000000           
PP24365130000                    000000006E311H01 D273 - E311H01 D200001912800000000000000000000000000000000000000000           
PP25721310000                    000000008E420L - E420L            00002467200000000000000000000000000000000000000000           
PP21033230000                    000000012E52KP D36 - E52KP D36    00000376500000000000000000000000000000000000000000           
PP21067230000                    000000036E57KP D73 - E57KP D73    00000477300000000000000000000000000000000000000000           
PP27375310000                    000000036E603L R - E603L R        00001252500000000000000000000000000000000000000000           
PP2665210000                     000000024E821KP D704 - E821KP D70400000782600000000000000000000000000000000000000000           
PP21506230000                    000000024E826KP D724-2 - E826KP D700001499000000000000000000000000000000000000000000           
PP24178130000                    000000006E988H D550 - E988H D550  00000808900000000000000000000000000000000000000000           
PP23054200000                    000000006H152WK - H152WK          00000594900000000000000000000000000000000000000000           
PP23842100000                    000000036H200W01 - H200W01        00000531100000000000000000000000000000000000000000           
PP23834100000                    000000024H200W02 - H200W02        00000583200000000000000000000000000000000000000000           
PP23835100000                    000000102H200W04 - H200W04        00000527600000000000000000000000000000000000000000           
PP22081200000                    000000060H200WDK01 - H200WDK01    00000652800000000000000000000000000000000000000000           
PP23887100000                    000000060H200WN01 - H200WN01      00000531100000000000000000000000000000000000000000           
PP23843100000                    000000006H230W - H230W            00000818700000000000000000000000000000000000000000           
PP25851100000                    000000036H24W05 - H24W05          00000531400000000000000000000000000000000000000000           
PP22409200000                    000000006H392WK - H392WK          00000774000000000000000000000000000000000000000000           
PP22608200000                    000000024H553WK - H553WK          00000630500000000000000000000000000000000000000000           
PP23311200000                    000000006H700WK - H700WK          00000753700000000000000000000000000000000000000000           
PP22706200000                    000000012H704WK - H704WK          00000673200000000000000000000000000000000000000000           
PP21697200000                    000000006H706WK - H706WK          00000890900000000000000000000000000000000000000000           
PP2526600000                     000000012T250W - T250W            00001223500000000000000000000000000000000000000000           
PP2642600000                     000000003T300W - T300W            00001243700000000000000000000000000000000000000000           
FTP0000000000000000000000000000000