ITP6010000000000000000000316379540001330342996800012600000000        NOVA AUTENTICA DISTRIBUIDORA, IMPORTADORAHENGST INDUSTRIA DE FILTR         
PP1003406442        10052300          100523                                                                                    
AE3316379540001330000000000000000000000000000
TE1COND PAGTO:28/42/56                     00
PP26415310000                    000000006E1000L - E1000L          00000574500000000000000000000000000000000000000000           
PP22218130000                    000000010E113H D235 - E113H D235  00000870500000000000000000000000000000000000000000           
PP25700310000                    000000006E1140L - E1140L          00000901300000000000000000000000000000000000000000           
PP22330130000                    000000020E115H01 D208 - E115H01 D200000264800000000000000000000000000000000000000000           
PP26322310000                    000000006E1186L - E1186L          00000563700000000000000000000000000000000000000000           
PP26620310000                    000000012E1280L - E1280L          00000546300000000000000000000000000000000000000000           
PP27404310000                    000000012E1446L - E1446L          00000543800000000000000000000000000000000000000000           
PP210216310000                   000000001E1451L - E1451L          00001371000000000000000000000000000000000000000000           
PP2412130000                     000000010E14H D77 - E14H D77      00000407000000000000000000000000000000000000000000           
PP28011310000                    000000012E1543L - E1543L          00000614700000000000000000000000000000000000000000           
PP22106130000                    000000010E155H D122 - E155H D122  00000715600000000000000000000000000000000000000000           
PP28432310000                    000000006E1629L - E1629L          00000436100000000000000000000000000000000000000000           
PP27494310000                    000000006E1959LB - E1959LB        00000701100000000000000000000000000000000000000000           
PP23344130000                    000000010E217H D310 - E217H D310  00000606400000000000000000000000000000000000000000           
PP26764310000                    000000012E2945LC - E2945LC        00000281500000000000000000000000000000000000000000           
PP26785310000                    000000012E2946LC - E2946LC        00000570000000000000000000000000000000000000000000           
PP26724310000                    000000012E2949LC - E2949LC        00000394300000000000000000000000000000000000000000           
PP27493310000                    000000006E2954LB03 - E2954LB03    00000840500000000000000000000000000000000000000000           
PP27511310000                    000000006E3900LB - E3900LB        00000514600000000000000000000000000000000000000000           
PP210074310000                   000000006E3945LI - E3945LI        00000270700000000000000000000000000000000000000000           
PP27106310000                    000000012E4936LC - E4936LC        00000758900000000000000000000000000000000000000000           
PP27156310000                    000000006E4938LC-2 - E4938LC-2    00000556700000000000000000000000000000000000000000           
PP28889310000                    000000006E5965LC - E5965LC        00000686000000000000000000000000000000000000000000           
PP29014310000                    000000006E5967LC - E5967LC        00001088300000000000000000000000000000000000000000           
PP24369130000                    000000020E61H D258 - E61H D258    00000392600000000000000000000000000000000000000000           
PP24372310000                    000000006E625L - E625L            00000684400000000000000000000000000000000000000000           
PP23253130000                    000000006E64H D96 - E64H D96      00000356300000000000000000000000000000000000000000           
PP24367130000                    000000020E818H D238 - E818H D238  00000542900000000000000000000000000000000000000000           
PP23452130000                    000000010E867H D370 - E867H D370  00000613400000000000000000000000000000000000000000           
PP27516310000                    000000006E989LB - E989LB          00000672200000000000000000000000000000000000000000           
PP26797310000                    000000006E998LC - E998LC          00000551200000000000000000000000000000000000000000           
PP23761130000                    000000010EG848H D338 - EG848H D33800000685800000000000000000000000000000000000000000           
PP22705200000                    000000010H420WK01 - H420WK01      00001442300000000000000000000000000000000000000000           
PP22400200000                    000000010H493WK - H493WK          00001443700000000000000000000000000000000000000000           
FTP0000000000000000000000000000000