ITP6010000000000000000000119737790001480342996800012600000000        G4 AUTO PECAS            HENGST INDUSTRIA DE FILTR         
PP1002806264        02052300          020523                                                                                    
AE3119737790001480000000000000000000000000000
TE1COND PAGTO:28/42/56                     00
PP27374310000                    000000010E1009L - E1009L          00001130400000000000000000000000000000000000000000           
PP211457310000                   000000010E1013L - E1013L          00001720300000000000000000000000000000000000000000           
PP21493230000                    000000006E103KP01 D197-2 - E103KP000001539400000000000000000000000000000000000000000           
PP26045310000                    000000036E1068L - E1068L          00001262500000000000000000000000000000000000000000           
PP25438310000                    000000006E1068LS - E1068LS        00000474300000000000000000000000000000000000000000           
PP25622310000                    000000006E1111L - E1111L          00000942200000000000000000000000000000000000000000           
PP24816310000                    000000006E114L - E114L            00001054900000000000000000000000000000000000000000           
PP25724310000                    000000003E115L - E115L            00000704500000000000000000000000000000000000000000           
PP23035130000                    000000024E123H01 D194 - E123H01 D100000613400000000000000000000000000000000000000000           
PP22647130000                    000000020E161H01 D28 - E161H01 D2800000191200000000000000000000000000000000000000000           
PP28640310000                    000000006E1908LI - E1908LI        00000306200000000000000000000000000000000000000000           
PP27336310000                    000000004E283L - E283L            00002400500000000000000000000000000000000000000000           
PP25721310000                    000000005E420L - E420L            00002467200000000000000000000000000000000000000000           
PP21035230000                    000000012E500KP02 D36 - E500KP02 D00000457200000000000000000000000000000000000000000           
PP22672130000                    000000006E510H07 D129 - E510H07 D100001007700000000000000000000000000000000000000000           
PP21033230000                    000000036E52KP D36 - E52KP D36    00000376500000000000000000000000000000000000000000           
PP21067230000                    000000036E57KP D73 - E57KP D73    00000477300000000000000000000000000000000000000000           
PP27375310000                    000000036E603L R - E603L R        00001252500000000000000000000000000000000000000000           
PP2738210000                     000000006E830KP D743 - E830KP D74300001022900000000000000000000000000000000000000000           
PP22130200000                    000000010H18WK05 - H18WK05        00000725700000000000000000000000000000000000000000           
PP25381100000                    000000024H19W10 - H19W10          00000530400000000000000000000000000000000000000000           
PP23835100000                    000000024H200W04 - H200W04        00000527600000000000000000000000000000000000000000           
PP25851100000                    000000036H24W05 - H24W05          00000531400000000000000000000000000000000000000000           
PP22707200000                    000000012H702WK - H702WK          00000780300000000000000000000000000000000000000000           
PP22706200000                    000000036H704WK - H704WK          00000673200000000000000000000000000000000000000000           
PP21697200000                    000000012H706WK - H706WK          00000890900000000000000000000000000000000000000000           
PP21413200000                    000000012H7090WK30 - H7090WK30    00000592700000000000000000000000000000000000000000           
PP2518800000                     000000012S27004K/1 - S27004K/1    00000416800000000000000000000000000000000000000000           
FTP0000000000000000000000000000000