ITP601000000000000000000094355039000337 Endereço: RUA DONA MARGARIDA 1250 DEPOSITO 02 Bairro: NAVEGANTES CEP: 90240610 Cidade: PORTO ALEGRE Estado: Rio Grande do Sul Telefone: (54) 992436534 Email: ubiratan@qualitatautopecascom0342996800012600000000        EMBV AUTOPECAS E SERVICOS LTDA.HENGST INDUSTRIA DE FILTR         
PP1000806205        27042300          270423                                                                                    
AE394355039000337 Endereço: RUA DONA MARGARIDA 1250 DEPOSITO 02 Bairro: NAVEGANTES CEP: 90240610 Cidade: PORTO ALEGRE Estado: Rio Grande do Sul Telefone: (54) 992436534 Email: ubiratan@qualitatautopecascom0000000000000000000000000000
TE1COND PAGTO:28/56/84                     00
PP26483310000                    000000006E1002L - E1002L          00000341900000000000000000000000000000000000000000           
PP27404310000                    000000006E1446L - E1446L          00000516200000000000000000000000000000000000000000           
PP26780310000                    000000006E1990LC - E1990LC        00000342900000000000000000000000000000000000000000           
PP26764310000                    000000006E2945LC - E2945LC        00000267200000000000000000000000000000000000000000           
PP26724310000                    000000012E2949LC - E2949LC        00000374400000000000000000000000000000000000000000           
PP23239130000                    000000010E71H D141 - E71H D141    00000318700000000000000000000000000000000000000000           
PP24367130000                    000000010E818H D238 - E818H D238  00000515400000000000000000000000000000000000000000           
PP21177110000                    000000010E823H D263 - E823H D263  00000549100000000000000000000000000000000000000000           
FTP0000000000000000000000000000000