ITP601000000000000000000030701298000128 Endereço: Avenida Ceará 731 Bairro: Navegantes CEP: 90240510 Cidade: Porto Alegre Estado: Rio Grande do Sul Telefone: (51) 31053300 Email: Admmasterparts@gmailc0342996800012600000000        IMPORT MULTI PECAS, DISTRIBUICAO DE PECASHENGST INDUSTRIA DE FILTR         
PP1002406209        27042300          270423                                                                                    
AE330701298000128 Endereço: Avenida Ceará 731 Bairro: Navegantes CEP: 90240510 Cidade: Porto Alegre Estado: Rio Grande do Sul Telefone: (51) 31053300 Email: Admmasterparts@gmailc0000000000000000000000000000
TE1COND PAGTO:28/42/56                     0OBS:Faturar em nota independente sem as pendenicas.
PP26415310000                    000000006E1000L - E1000L          00000603600000000000000000000000000000000000000000           
PP21453130000                    000000010E106H D171 - E106H D171  00000445700000000000000000000000000000000000000000           
PP27142310000                    000000006E1105L - E1105L          00000491600000000000000000000000000000000000000000           
PP26620310000                    000000006E1280L - E1280L          00000574000000000000000000000000000000000000000000           
PP27081310000                    000000006E1346L - E1346L          00000613800000000000000000000000000000000000000000           
PP27091310000                    000000006E1347L - E1347L          00000457400000000000000000000000000000000000000000           
PP28011310000                    000000006E1543L - E1543L          00000681700000000000000000000000000000000000000000           
PP28754310000                    000000012E1778L - E1778L          00000689300000000000000000000000000000000000000000           
PP27494310000                    000000006E1959LB - E1959LB        00000736600000000000000000000000000000000000000000           
PP23344130000                    000000010E217H D310 - E217H D310  00000637100000000000000000000000000000000000000000           
PP23125130000                    000000010E27H D125 - E27H D125    00000276700000000000000000000000000000000000000000           
PP26724310000                    000000006E2949LC - E2949LC        00000414300000000000000000000000000000000000000000           
PP26720310000                    000000006E2998LC - E2998LC        00000605900000000000000000000000000000000000000000           
PP26716310000                    000000006E2998LI - E2998LI        00000459300000000000000000000000000000000000000000           
PP27634310000                    000000006E3905LC - E3905LC        00000767600000000000000000000000000000000000000000           
PP27521310000                    000000012E3950LB-2 - E3950LB-2    00000682900000000000000000000000000000000000000000           
PP210550310000                   000000012E4931LC - E4931LC        00000637400000000000000000000000000000000000000000           
PP27106310000                    000000006E4936LC - E4936LC        00000797300000000000000000000000000000000000000000           
PP210187310000                   000000018E4980LC - E4980LC        00000745000000000000000000000000000000000000000000           
PP29014310000                    000000018E5967LC - E5967LC        00001143400000000000000000000000000000000000000000           
PP22831130000                    000000010E832H D317 - E832H D317  00000525100000000000000000000000000000000000000000           
PP22863130000                    000000010E833H D321 - E833H D321  00000780600000000000000000000000000000000000000000           
PP23207130000                    000000010E863H D360 - E863H D360  00000891100000000000000000000000000000000000000000           
PP24276100000                    000000012H97W05 - H97W05          00000211100000000000000000000000000000000000000000           
FTP0000000000000000000000000000000