ITP601000000000000000000027861688000150 Endereço: R 01 250 SALA 02 Bairro: AREA EMPRESARIAL DEONELO LUCIA CEP: 89950000 Cidade: DIONISIO CERQUEIRA Estado: Santa Catarina Telefone: +55 49 91031462 Email: Siqueirat052@gmailc0342996800012600000000        JG DISTRIBUIDORA DE PECAS LTDAHENGST INDUSTRIA DE FILTR         
PP1003006427        09052300          090523                                                                                    
AE327861688000150 Endereço: R 01 250 SALA 02 Bairro: AREA EMPRESARIAL DEONELO LUCIA CEP: 89950000 Cidade: DIONISIO CERQUEIRA Estado: Santa Catarina Telefone: +55 49 91031462 Email: Siqueirat052@gmailc0000000000000000000000000000
TE1COND PAGTO:28/42/56                     0OBS:Primeiro pedido da JG Distribuidora.
PP27337310000                    000000024E1024L - E1024L          00001749500000000000000000000000000000000000000000           
PP21126110000                    000000010E10H02 - E10H02          00000133200000000000000000000000000000000000000000           
PP2656230000                     000000010E10KFR4 D10 - E10KFR4 D1000001863900000000000000000000000000000000000000000           
PP23035130000                    000000012E123H01 D194 - E123H01 D100000629700000000000000000000000000000000000000000           
PP22697130000                    000000012E175H D129 - E175H D129  00000373600000000000000000000000000000000000000000           
PP21035230000                    000000012E500KP02 D36 - E500KP02 D00000469400000000000000000000000000000000000000000           
PP21067230000                    000000012E57KP D73 - E57KP D73    00000490000000000000000000000000000000000000000000           
PP27375310000                    000000012E603L R - E603L R        00001353600000000000000000000000000000000000000000           
PP26014310000                    000000006E681L - E681L            00001690100000000000000000000000000000000000000000           
PP21506230000                    000000012E826KP D724-2 - E826KP D700001539000000000000000000000000000000000000000000           
PP24187100000                    000000010H10W02 - H10W02          00000221300000000000000000000000000000000000000000           
PP23054200000                    000000010H152WK - H152WK          00000610800000000000000000000000000000000000000000           
PP22352200000                    000000012H17WK11 - H17WK11        00000538300000000000000000000000000000000000000000           
PP25381100000                    000000012H19W10 - H19W10          00000544500000000000000000000000000000000000000000           
PP25666100000                    000000024H200W02 - H200W02        00000598700000000000000000000000000000000000000000           
PP26006100000                    000000024H200W04 - H200W04        00000541700000000000000000000000000000000000000000           
PP23343200000                    000000012H200WDK - H200WDK        00000667300000000000000000000000000000000000000000           
PP26172100000                    000000012H200WN01 - H200WN01      00000545200000000000000000000000000000000000000000           
PP23482100000                    000000012H220W - H220W            00000546900000000000000000000000000000000000000000           
PP23843100000                    000000012H230W - H230W            00000840500000000000000000000000000000000000000000           
PP25851100000                    000000012H24W05 - H24W05          00000545600000000000000000000000000000000000000000           
PP22296100000                    000000006H300W07 - H300W07        00001407300000000000000000000000000000000000000000           
PP21872200000                    000000012H328WK - H328WK          00000931600000000000000000000000000000000000000000           
PP21855200000                    000000012H353WK - H353WK          00000563200000000000000000000000000000000000000000           
PP22150200000                    000000012H414WK - H414WK          00000466700000000000000000000000000000000000000000           
PP22462200000                    000000006H501WK - H501WK          00001296700000000000000000000000000000000000000000           
PP22083200000                    000000020H60WK01 - H60WK01        00000185200000000000000000000000000000000000000000           
PP22706200000                    000000024H704WK - H704WK          00000691100000000000000000000000000000000000000000           
PP21696200000                    000000024H705WK - H705WK          00000625400000000000000000000000000000000000000000           
PP2526600000                     000000006T250W - T250W            00001256100000000000000000000000000000000000000000           
FTP0000000000000000000000000000000