ITP6010000000000000000000011046420001010342996800012600000000        SIGA BEM                 HENGST INDUSTRIA DE FILTR         
PP1002806237        28042300          280423                                                                                    
AE3011046420001010000000000000000000000000000
TE1COND PAGTO:28/42/56                     00
PP211457310000                   000000012E1013L - E1013L          00001720300000000000000000000000000000000000000000           
PP27337310000                    000000036E1024L - E1024L          00001704000000000000000000000000000000000000000000           
PP27335310000                    000000024E1028L - E1028L          00001151400000000000000000000000000000000000000000           
PP25438310000                    000000006E1068LS - E1068LS        00000474300000000000000000000000000000000000000000           
PP23035130000                    000000024E123H01 D194 - E123H01 D100000613400000000000000000000000000000000000000000           
PP22644130000                    000000030E160H01 D28 - E160H01 D2800000155600000000000000000000000000000000000000000           
PP22647130000                    000000040E161H01 D28 - E161H01 D2800000191200000000000000000000000000000000000000000           
PP22697130000                    000000024E175H D129 - E175H D129  00000363900000000000000000000000000000000000000000           
PP29446310000                    000000006E272L - E272L            00002710700000000000000000000000000000000000000000           
PP210343310000                   000000012E3937LI - E3937LI        00000433800000000000000000000000000000000000000000           
PP29207310000                    000000012E3938LI - E3938LI        00000411500000000000000000000000000000000000000000           
PP23540130000                    000000012E422H D86 - E422H D86    00000321100000000000000000000000000000000000000000           
PP21037230000                    000000048E422KP D98 - E422KP D98  00000477100000000000000000000000000000000000000000           
PP23536130000                    000000020E44H D110 - E44H D110    00000229800000000000000000000000000000000000000000           
PP210349310000                   000000001E497L - E497L            00005509400000000000000000000000000000000000000000           
PP21033230000                    000000060E52KP D36 - E52KP D36    00000376500000000000000000000000000000000000000000           
PP21067230000                    000000024E57KP D73 - E57KP D73    00000477300000000000000000000000000000000000000000           
PP27375310000                    000000060E603L R - E603L R        00001252500000000000000000000000000000000000000000           
PP27338310000                    000000006E802L - E802L            00000928400000000000000000000000000000000000000000           
PP27579310000                    000000006E933LI - E933LI          00000494500000000000000000000000000000000000000000           
PP29205310000                    000000030E980LI - E980LI          00000397400000000000000000000000000000000000000000           
PP23054200000                    000000030H152WK - H152WK          00000594900000000000000000000000000000000000000000           
PP23842100000                    000000036H200W01 - H200W01        00000531100000000000000000000000000000000000000000           
PP22082200000                    000000036H200WDK - H200WDK        00000650000000000000000000000000000000000000000000           
PP22632100000                    000000006H311W - H311W            00004014000000000000000000000000000000000000000000           
PP22150200000                    000000036H414WK - H414WK          00000454600000000000000000000000000000000000000000           
PP22068200000                    000000006H70WK09 - H70WK09        00000920000000000000000000000000000000000000000000           
PP2526600000                     000000018T250W - T250W            00001223500000000000000000000000000000000000000000           
FTP0000000000000000000000000000000