ITP601000000000000000000013408590000308 Endereço: R PADRE AURELIO CANZI 3760 Bairro: SAO SEBASTIAO CEP: 89900000 Cidade: SAO MIGUEL DO OESTE Estado: Santa Catarina Telefone: 49 30900800 Email: compraseixosul@hotmailc0342996800012600000000        EIXO SUL DISTRIBUIDORA DE PECAS LTDAHENGST INDUSTRIA DE FILTR         
PP1004006199        27042300          270423                                                                                    
AE313408590000308 Endereço: R PADRE AURELIO CANZI 3760 Bairro: SAO SEBASTIAO CEP: 89900000 Cidade: SAO MIGUEL DO OESTE Estado: Santa Catarina Telefone: 49 30900800 Email: compraseixosul@hotmailc0000000000000000000000000000
TE1COND PAGTO:28/42/56                     00
PP25774310000                    000000006E1006L - E1006L          00002003300000000000000000000000000000000000000000           
PP27337310000                    000000024E1024L - E1024L          00001704000000000000000000000000000000000000000000           
PP21457110000                    000000006E103H D159 - E103H D159  00000360500000000000000000000000000000000000000000           
PP21493230000                    000000006E103KP01 D197-2 - E103KP000001539400000000000000000000000000000000000000000           
PP294530000                      000000010E104U D350 - E104U D350  00000577900000000000000000000000000000000000000000           
PP22697130000                    000000024E175H D129 - E175H D129  00000363900000000000000000000000000000000000000000           
PP29446310000                    000000012E272L - E272L            00002710700000000000000000000000000000000000000000           
PP27336310000                    000000003E283L - E283L            00002400500000000000000000000000000000000000000000           
PP29207310000                    000000006E3938LI - E3938LI        00000411500000000000000000000000000000000000000000           
PP25721310000                    000000006E420L - E420L            00002467200000000000000000000000000000000000000000           
PP21037230000                    000000012E422KP D98 - E422KP D98  00000477100000000000000000000000000000000000000000           
PP23538130000                    000000012E500H D129 - E500H D129  00000416600000000000000000000000000000000000000000           
PP21035230000                    000000024E500KP02 D36 - E500KP02 D00000457200000000000000000000000000000000000000000           
PP26014310000                    000000006E681L - E681L            00001646200000000000000000000000000000000000000000           
PP27338310000                    000000006E802L - E802L            00000928400000000000000000000000000000000000000000           
PP21431230000                    000000006E82KP D36 - E82KP D36    00000764100000000000000000000000000000000000000000           
PP28829310000                    000000006E931LI - E931LI          00000301300000000000000000000000000000000000000000           
PP29205310000                    000000009E980LI - E980LI          00000397400000000000000000000000000000000000000000           
PP23054200000                    000000010H152WK - H152WK          00000594900000000000000000000000000000000000000000           
PP23835100000                    000000024H200W04 - H200W04        00000527600000000000000000000000000000000000000000           
PP22082200000                    000000006H200WDK - H200WDK        00000650000000000000000000000000000000000000000000           
PP23482100000                    000000006H220W - H220W            00000532700000000000000000000000000000000000000000           
PP23843100000                    000000006H230W - H230W            00000818700000000000000000000000000000000000000000           
PP22296100000                    000000012H300W07 - H300W07        00001370700000000000000000000000000000000000000000           
PP22632100000                    000000006H311W - H311W            00004014000000000000000000000000000000000000000000           
PP21872200000                    000000010H328WK - H328WK          00000907400000000000000000000000000000000000000000           
PP21523200000                    000000006H329WK - H329WK          00001095500000000000000000000000000000000000000000           
PP21877200000                    000000006H357WK - H357WK          00000527400000000000000000000000000000000000000000           
PP22409200000                    000000006H392WK - H392WK          00000774000000000000000000000000000000000000000000           
PP22462200000                    000000006H501WK - H501WK          00001263000000000000000000000000000000000000000000           
PP22463200000                    000000006H502WK - H502WK          00000919000000000000000000000000000000000000000000           
PP23311200000                    000000006H700WK - H700WK          00000753700000000000000000000000000000000000000000           
PP22707200000                    000000012H702WK - H702WK          00000780300000000000000000000000000000000000000000           
PP21697200000                    000000012H706WK - H706WK          00000890900000000000000000000000000000000000000000           
PP21413200000                    000000006H7090WK30 - H7090WK30    00000592700000000000000000000000000000000000000000           
PP2857200000                     000000008H710WK - H710WK          00001364800000000000000000000000000000000000000000           
PP2519800000                     000000012S20014K/1 - S20014K/1    00000431600000000000000000000000000000000000000000           
PP2296600000                     000000006T280W - T280W            00002034600000000000000000000000000000000000000000           
PP2642600000                     000000012T300W - T300W            00001243700000000000000000000000000000000000000000           
PP21111110000                    000000012Z16 D183 - Z16 D183      00001918300000000000000000000000000000000000000000           
FTP0000000000000000000000000000000